:100000000C9464000C948C000C948C000C948C0068
:100010000C948C000C948C000C948C000C948C0030
:100020000C948C000C948C000C948C000C948C0020
:100030000C948C000C948C000C948C000C948C0010
:100040000C9427040C948C000C94CB050C940306A0
:100050000C948C000C948C000C948C000C948C00F0
:100060000C948C000C948C000000000024002700ED
:100070002A0000000000250028002B0000000000DE
:1000800023002600290004040404040404040202DA
:100090000202020203030303030301020408102007
:1000A0004080010204081020010204081020000012
:1000B0000007000201000003040600000000000029
:1000C00000007303BD06780311241FBECFEFD8E0F4
:1000D000DEBFCDBF11E0A0E0B1E0EAE3F1E102C094
:1000E00005900D92A432B107D9F712E0A4E2B1E075
:1000F00001C01D92A130B107E1F710E0C6ECD0E0DD
:1001000004C02297FE010E940008C23CD107C9F733
:100110000E946C070C9490080C94000008950895B8
:10012000EF92FF920F931F93CF93DF93CA01019633
:100130008730910514F080E090E005E011E020E0C8
:1001400030E0E0E0F0E01BC0D801ED90FD908D01C3
:10015000DC01AA0FBB1FA60FB71FCD91DC91EC9E4F
:10016000D001ED9EB00DFC9EB00D11242A0F3B1F57
:10017000019631968730910514F080E090E04817A1
:10018000590711F7DA01AA0FBB1FA60FB71FEE0F11
:10019000FF1FEB5FFE4F0D90BC91A02D0190F081F1
:1001A000E02DAE9FC001AF9F900DBE9F900D11241A
:1001B000820F931F4F5F5F4F4730510514F040E0AF
:1001C00050E0FA01EE0FFF1F97FF07C0E60FF71F81
:1001D00082E390E09183808308C0E60FF71F6CE113
:1001E00070E00E949A0771836083DF91CF911F9125
:1001F0000F91FF90EF90089542960E948E0008950F
:10020000EF92FF920F931F93CF93DF93EC01862F12
:10021000688379830E94F7040E94FE0682E0E82E3C
:10022000F12CEC0EFD1E07E010E067E271E080E0CB
:1002300090E021E331E040E050E00E942407F70124
:10024000619371937F010150104079F786E090E04F
:10025000998B888BDF91CF911F910F91FF90EF9039
:1002600008958F929F92AF92BF92CF92DF92EF92BA
:10027000FF920F931F93CF93DF93EC0103E010E005
:1002800056E0C52ED12C42E1A42EB12CA80EB91EE9
:1002900032E0832E912C880E991EE888F988888197
:1002A0000E94F704F7013196EE0FFF1FEC0FFD1FC0
:1002B00091838083888999890197998B888B97FF8F
:1002C00002C0D98AC88A48895989C501B4010E94E7
:1002D00090000150104009F788899989019667E0DC
:1002E00070E00E949A07FC013196EE0FFF1FEC0FA1
:1002F000FD1F80819181DF91CF911F910F91FF9020
:10030000EF90DF90CF90BF90AF909F908F90089527
:10031000FC0182E0808384E0818387E0828388E03F
:1003200083830895CF93DF93EC01888161E00E947D
:10033000AA03898161E00E94AA0389E061E00E942A
:10034000AA038A8161E00E94AA038B8161E00E9476
:10035000AA038AE061E00E94AA0380EA80938000F9
:1003600081E18093810080E991E090938700809300
:100370008600DF91CF910895CF93DF93EC0177FF53
:1003800005C0709561957F4F81E001C080E091E0EC
:100390006139790714F060E971E070938900609326
:1003A00088006115710519F4888160E00BC088230D
:1003B00039F0888160E00E94EF03898161E006C026
:1003C000888161E00E94EF03898160E00E94EF0371
:1003D000DF91CF910895CF93DF93EC0177FF05C0B4
:1003E000709561957F4F81E001C080E091E06139B7
:1003F000790714F060E971E070938B0060938A00D4
:100400006115710519F48A8160E00BC0882339F009
:100410008A8160E00E94EF038B8161E006C08A81DF
:1004200061E00E94EF038B8160E00E94EF03DF91A7
:10043000CF9108950F931F93CF93DF93EC018A011F
:100440000E94BC01CE01B8010E94EB01DF91CF9167
:100450001F910F910895EF92FF920F931F93CF93E7
:10046000DF938C01E62EE7017E01F72EE701F7FE10
:1004700003C0D095C195DF4FF801808160E00E94F4
:10048000EF03F801818160E00E94EF037E018C2F71
:100490009F2D21E08139920714F080E991E090933B
:1004A000890080938800DF91CF911F910F91FF9079
:1004B000EF900895EF92FF920F931F93CF93DF93E6
:1004C0008C01E62EE7017E01F72EE701F7FE03C05F
:1004D000D095C195DF4FF801828160E00E94EF0363
:1004E000F801838160E00E94EF037E018C2F9F2D35
:1004F00021E08139920714F080E991E090938B001C
:1005000080938A00DF91CF911F910F91FF90EF9020
:1005100008950F931F93CF93DF93EC018A010E94FC
:100520002B02CE01B8010E945A02DF91CF911F9198
:100530000F9108958130910569F484E291E00E9461
:10054000FC0087E391E00E94FC008AE491E00E94B5
:1005500088010895009741F489E491E00E948F009A
:1005600086E391E00E948F000895EF92FF920F932F
:100570001F93CF93DF9308EE13E084E291E00E9493
:1005800031017C0187E391E00E943101EC016AE0D6
:1005900070E080E090E00E949504EC16FD063CF4CB
:1005A0008AE491E064EC7FEF4CE350E009C0CE15A3
:1005B000DF0544F48AE491E06CE370E044EC5FEF23
:1005C0000E941A0201501040C1F68AE491E060E9ED
:1005D00071E040E951E00E948902DF91CF911F91C3
:1005E0000F91FF90EF900895EF92FF920F931F935A
:1005F000CF93DF93C8EED3E084E291E00E94310113
:100600008C0187E391E00E9431017C016AE070E097
:1006100080E090E00E9495048E2D9F2D8017910719
:100620000CF4C80121E0843F92073CF48AE491E095
:1006300064E670E044E650E00AC022E087329207A8
:1006400054F08AE491E06CE97FEF4CE95FEF0E949F
:100650001A02219789F68AE491E060E971E040E9A5
:1006600051E00E948902DF91CF911F910F91FF907D
:10067000EF9008950E94F40264EF71E080E090E052
:100680000E9495040E94B50208958FED91E040E824
:1006900055E260E070E00E943E068AE491E00E942C
:1006A00092016AE070E080E090E00E94950487E3A8
:1006B00091E063E170E00E94000184E291E062E178
:1006C00070E00E9400016AE070E080E090E00E942B
:1006D000950408950E943A0368E873E180E090E091
:1006E0000E949504089581E090E00E949A02089586
:1006F00080E090E00E949A020895833071F0843087
:1007000028F48130A1F0823021F514C08630B1F098
:100710008730D1F08430E9F404C0809180008F7775
:1007200003C0809180008F7D80938000089584B500
:100730008F7702C084B58F7D84BD08958091B0000D
:100740008F778093B00008958091B0008F7D809363
:10075000B0000895EF92FF92CF93DF9390E0FC01F9
:10076000E656FF4F44918A579F4FFC01849188239E
:1007700089F190E0880F991FFC01E859FF4F2591FE
:100780003491D9018E589F4FFC0125913491E22E6E
:10079000E7017E01F32EE701662349F49FB7F89441
:1007A0008C91409584238C93888184230BC0623084
:1007B00059F49FB7F8948C91242F209582238C9321
:1007C0008881842B888305C09FB7F8948C91842BF3
:1007D0008C939FBFDF91CF91FF90EF9008950F937F
:1007E0001F93DF93CF930F92CDB7DEB7282F30E062
:1007F000F901E255FF4F8491F901E656FF4F14913C
:100800002A573F4FF90104910023D9F0882321F0A2
:1008100069830E947D036981E02FF0E0EE0FFF1FE6
:10082000EE58FF4F85919491DC019FB7F8946623B1
:1008300021F48C911095812302C08C91812B8C9393
:100840009FBF0F90CF91DF911F910F9108951F923D
:100850000F920FB60F9211242F933F938F939F9374
:10086000AF93BF938091520190915301A091540195
:10087000B0915501309156010196A11DB11D232F54
:100880002D5F2D3720F02D570196A11DB11D20930E
:1008900056018093520190935301A0935401B09359
:1008A000550180914E0190914F01A0915001B0915E
:1008B00051010196A11DB11D80934E0190934F01EE
:1008C000A0935001B0935101BF91AF919F918F912F
:1008D0003F912F910F900FBE0F901F9018959FB7CB
:1008E000F89420914E0130914F0140915001509168
:1008F000510186B5A89B06C08F3F21F02F5F3F4F67
:100900004F4F5F4F9FBF542F432F322F2227280F67
:10091000311D411D511D82E0220F331F441F551F01
:100920008A95D1F7B901CA010895EF92FF920F930A
:100930001F93CF93DF937B018C010E946F04EB0127
:100940000FC00E946F046C1B7D0B83E0683E78072C
:1009500038F00894E108F10801091109C851DC4F89
:10096000E114F1040105110561F7DF91CF911F91A9
:100970000F91FF90EF900895789484B5826084BDC4
:1009800084B5816084BD85B5826085BD85B5816093
:1009900085BDEEE6F0E0808181608083E1E8F0E0F3
:1009A0001082808182608083808181608083E0E822
:1009B000F0E0808181608083E1EBF0E08081846001
:1009C0008083E0EBF0E0808181608083EAE7F0E003
:1009D0008081846080838081826080838081816067
:1009E00080838081806880831092C10008958E305A
:1009F00008F08E508770909104019295990F990F8D
:100A0000907C982B90937C0080917A0080648093F6
:100A10007A0080917A0086FDFCCF20917800309199
:100A20007900932F80E030E0282B392BC9010895FD
:100A3000FC0184859585FC01E05CFF4F20813181BC
:100A40008E5B9F4FFC0180819181281B390B2F7396
:100A50003070C9010895FC0184859585FC01E05C36
:100A6000FF4F40815181FC01EE5BFF4F20813181BE
:100A70004217530741F00190F081E02DE80FF91F74
:100A8000208130E002C02FEF3FEFC9010895FC0143
:100A900084859585FC01E05CFF4F40815181FC011C
:100AA000EE5BFF4F208131814217530771F0A08127
:100AB000B181A80FB91F2C918081918101968F730C
:100AC00090709183808330E002C02FEF3FEFC90127
:100AD0000895FC0181A1882329F0A489B5898C910E
:100AE00086FFFBCF11A20895FC0126853785D90129
:100AF000A05CBF4F8D919C9101968F739070D9012E
:100B0000AE5BBF4F4D915C91119784179507D1F360
:100B1000D901A05CBF4F0D90BC91A02DA20FB31FB7
:100B20006C93A685B785A05CBF4F11969C938E935E
:100B3000A689B7892C9181E090E0078C02C0880FCC
:100B4000991F0A94E2F7282B2C9381E081A3048853
:100B5000F589E02D80818064808381E090E00895B4
:100B6000FB01E05CFF4F208131812F5F3F4F2F73EE
:100B70003070DB01AE5BBF4F4D915C911197241734
:100B8000350739F0A081B181A60FB71F8C9331834F
:100B90002083089508951F920F920FB60F9211248B
:100BA0002F933F934F935F936F937F938F939F9375
:100BB000AF93BF93EF93FF938091C00082FD07C076
:100BC0008091C60067E571E00E94B00502C0809187
:100BD000C600FF91EF91BF91AF919F918F917F914F
:100BE0006F915F914F913F912F910F900FBE0F909A
:100BF0001F9018958FED91E00E941805009711F055
:100C00000E94CA0508951F920F920FB60F921124E9
:100C10002F933F938F939F93EF93FF932091DB014B
:100C20003091DC018091DD019091DE0128173907B8
:100C300031F48091C1008F7D8093C10014C0E09198
:100C4000DD01F091DE01E556FE4F20818091DD014E
:100C50009091DE0101968F7390709093DE018093E6
:100C6000DD012093C600FF91EF919F918F913F91FD
:100C70002F910F900FBE0F901F901895DF92EF925B
:100C8000FF920F931F93CF93DF93EC017A018B01B7
:100C9000DD24D394403081EE580780E0680780E07F
:100CA000780749F4DD24EC89FD89108260E874E856
:100CB0008EE190E00FC0EC89FD8981E090E008A012
:100CC00002C0880F991F0A94E2F7808360E079E000
:100CD0008DE390E0A80197010E94AD0721503040BC
:100CE00040405040569547953795279580E12030F4
:100CF000380710F0DD20B1F6E889F9893083EA89F8
:100D0000FB89208319A2EE89FF89408181E090E070
:100D10009C010C8C02C0220F331F0A94E2F7422B75
:100D20004083EE89FF8940819C010D8C02C0220F17
:100D3000331F0A94E2F7422B4083EE89FF894081FA
:100D40009C010E8C02C0220F331F0A94E2F7422B43
:100D50004083EE89FF8920810F8C02C0880F991F84
:100D60000A94E2F7809582238083DF91CF911F91CF
:100D70000F91FF90EF90DF9008951092E201109292
:100D8000E10188EE93E0A0E0B0E08093E30190936E
:100D9000E401A093E501B093E601E1EEF1E087E123
:100DA00091E09293829387E591E0958784878BE920
:100DB00091E09787868785EC90E0918B808B84EC1F
:100DC00090E0938B828B80EC90E0958B848B81EC10
:100DD00090E0978B868B82EC90E0918F808F86ECF1
:100DE00090E0938F828F84E0848F83E0858F87E00B
:100DF000868F85E0878F81E080A30895009729F092
:100E0000BC0180E090E00E9450080895EF92FF92AC
:100E10000F931F937B018C0161157105810591056D
:100E200049F00E944B08A80197010E94CF079B013F
:100E3000AC0103C020E030E0A901B901CA011F9153
:100E40000F91FF90EF900895EF92FF920F931F93F1
:100E50007B018C01621773078407950764F4CA014C
:100E6000B9016E197F09800B910B0E940607E60EEF
:100E7000F71E081F191FB701C8011F910F91FF909E
:100E8000EF900895CF92DF92EF92FF920F931F930E
:100E9000CF93DF936C017B018A01C0E0D0E00FC0EB
:100EA000D7016D917D01D601ED91FC910190F0810A
:100EB000E02DC6010995C80FD91F0150104001153A
:100EC000110571F7CE01DF91CF911F910F91FF9026
:100ED000EF90DF90CF900895CF93DF930E94BC04F2
:100EE0000E944503CAEFD5E00E946A032097E1F310
:100EF0000E94FA05F9CF629FD001739FF001829F93
:100F0000E00DF11D649FE00DF11D929FF00D839F98
:100F1000F00D749FF00D659FF00D9927729FB00D35
:100F2000E11DF91F639FB00DE11DF91FBD01CF0148
:100F30001124089597FB092E07260AD077FD04D0C7
:100F400049D006D000201AF4709561957F4F08951E
:100F5000F6F7909581959F4F0895A1E21A2EAA1B4E
:100F6000BB1BFD010DC0AA1FBB1FEE1FFF1FA21759
:100F7000B307E407F50720F0A21BB30BE40BF50B56
:100F8000661F771F881F991F1A9469F760957095DF
:100F9000809590959B01AC01BD01CF01089597FB11
:100FA000092E05260ED057FD04D0D7DF0AD0001C2D
:100FB00038F450954095309521953F4F4F4F5F4FF6
:100FC0000895F6F790958095709561957F4F8F4FB6
:100FD0009F4F0895AA1BBB1B51E107C0AA1FBB1F4F
:100FE000A617B70710F0A61BB70B881F991F5A95B5
:100FF000A9F780959095BC01CD010895EE0FFF1FD4
:101000000590F491E02D0994A0E0B0E0EAE0F8E06A
:101010000C946108EC01688179818A819B8161155A
:1010200071058105910521F464E279ED8BE597E086
:101030002DE133EF41E050E00E94CF0779018A01B2
:1010400027EA31E440E050E00E947B075B016C013D
:10105000C801B7012CEE34EF4FEF5FEF0E947B0722
:101060009B01AC012A0D3B1D4C1D5D1D57FF04C0AB
:101070002150304040405048288339834A835B8365
:101080005F77B901CA01CDB7DEB7EAE00C947D08FD
:101090000E940408089580E091E00E9404080895E9
:1010A000609300017093010180930201909303010A
:1010B00008952F923F924F925F926F927F928F92FC
:1010C0009F92AF92BF92CF92DF92EF92FF920F93D7
:1010D0001F93CF93DF93CDB7DEB7CA1BDB0B0FB6E1
:1010E000F894DEBF0FBECDBF09942A88398848889E
:1010F0005F846E847D848C849B84AA84B984C88434
:10110000DF80EE80FD800C811B81AA81B981CE0F2A
:10111000D11D0FB6F894DEBF0FBECDBFED0108950F
:1011200010E0C6ECD0E004C0FE010E940008229648
:0A113000C83CD107C9F7F894FFCFBF
:10113A0001000000010D000A00070004000100FE82
:10114A00FFFBFF0000000074054207180547052B46
:04115A00056905001E
:00000001FF
