:100000000C9464000C948C000C948C000C948C0068
:100010000C948C000C948C000C948C000C948C0030
:100020000C948C000C948C000C948C000C948C0020
:100030000C948C000C948C000C948C000C948C0010
:100040000C94E6040C948C000C948A060C94C20662
:100050000C948C000C948C000C948C000C948C00F0
:100060000C948C000C948C000000000024002700ED
:100070002A0000000000250028002B0000000000DE
:1000800023002600290004040404040404040202DA
:100090000202020203030303030301020408102007
:1000A0004080010204081020010204081020000012
:1000B0000007000201000003040600000000000029
:1000C000000096037C079B0311241FBECFEFD8E0EE
:1000D000DEBFCDBF11E0A0E0B1E0EEEBFAE102C07F
:1000E00005900D92A435B107D9F712E0A4E5B1E06F
:1000F00001C01D92A137B107E1F710E0C6ECD0E0D6
:1001000004C02297FE010E94810CC23CD107C9F7AE
:100110000E94E1090C94520D0C940000089508957A
:10012000EF92FF920F931F93CF93DF93CA01019633
:100130008730910514F080E090E005E311E020E0C5
:1001400030E0E0E0F0E01BC0D801ED90FD908D01C3
:10015000DC01AA0FBB1FA60FB71FCD91DC91EC9E4F
:10016000D001ED9EB00DFC9EB00D11242A0F3B1F57
:10017000019631968730910514F080E090E04817A1
:10018000590711F7DA01AA0FBB1FA60FB71FEE0F11
:10019000FF1FEB5CFE4F0D90BC91A02D0190F081F4
:1001A000E02DAE9FC001AF9F900DBE9F900D11241A
:1001B000820F931F4F5F5F4F4730510514F040E0AF
:1001C00050E0FA01EE0FFF1F97FF07C0E60FF71F81
:1001D00082E390E09183808308C0E60FF71F6CE113
:1001E00070E00E941B0C71836083DF91CF911F919F
:1001F0000F91FF90EF90089542960E948E0008950F
:10020000EF92FF920F931F93CF93DF93EC01862F12
:10021000688379830E94B6050E94BD0782E0E82EBC
:10022000F12CEC0EFD1E07E010E067E271E080E0CB
:1002300090E021E331E040E050E00E94E307F70165
:10024000619371937F010150104079F786E090E04F
:10025000998B888BDF91CF911F910F91FF90EF9039
:1002600008958F929F92AF92BF92CF92DF92EF92BA
:10027000FF920F931F93CF93DF93EC0103E010E005
:1002800056E0C52ED12C42E1A42EB12CA80EB91EE9
:1002900032E0832E912C880E991EE888F988888197
:1002A0000E94B605F7013196EE0FFF1FEC0FFD1F00
:1002B00091838083888999890197998B888B97FF8F
:1002C00002C0D98AC88A48895989C501B4010E94E7
:1002D00090000150104009F788899989019667E0DC
:1002E00070E00E941B0CFC013196EE0FFF1FEC0F1B
:1002F000FD1F80819181DF91CF911F910F91FF9020
:10030000EF90DF90CF90BF90AF909F908F90089527
:100310000895CF93DF93EC01842F798368834A8318
:100320005B8361E00E9469048A8161E00E94AE04FF
:10033000888160E00E946904CAE2D1E069918BE49F
:1003400092E00E94330681E0CE32D807B9F7DF9100
:10035000CF910895CF93DF93EC018A8160E00E94F2
:10036000AE048A8161E00E94AE04888160E020E4EE
:1003700032E44FE050E00E94A00322E330E040E08E
:1003800050E00E942E0CC901DF91CF910895813079
:100390009105E9F484E591E00E94880188E591E007
:1003A0000E9488018CE591E00E94880180E691E03E
:1003B0000E94FC0083E791E00E94FC0086E891E047
:1003C0000E94FC0089E991E00E94FC0008950097DA
:1003D00081F48BEA91E00E948F0088E991E00E940D
:1003E0008F0085E891E00E948F0082E791E00E94F3
:1003F0008F0008958BE492E040E855E260E070E001
:100400000E94FD0684E591E06CE070E041E150E07F
:100410000E94890188E591E060E170E041E150E0EF
:100420000E9489018CE591E065E070E041E150E0D7
:100430000E9489016AE070E080E090E00E9454052B
:1004400083E791E063E170E00E94000180E691E0C3
:1004500062E170E00E94000186E891E06EE070E0E9
:100460000E94000189E991E06FE070E00E940001C4
:100470000895CF92DF92EF92FF920F931F93DF9335
:10048000CF93CDB7DEB7C256D0400FB6F894DEBFDB
:100490000FBECDBF84E591E00E94AA019093AD010B
:1004A0008093AC0188E591E00E94AA019093B1018C
:1004B0008093B0018CE591E00E94AA019093AF0176
:1004C0008093AE0183E791E00E9431019093B301E4
:1004D0008093B20180E691E00E9431019093B501D2
:1004E0008093B40186E891E00E9431019093B901B4
:1004F0008093B80189E991E00E9431019093B7019E
:100500008093B601F8E0EF2EF12CEC0EFD1EC70132
:1005100060E071E00E9473086091AC017091AD01E0
:100520008E010F5F1F4FC8014AE00E94A608C70155
:10053000B8010E940209BC01EBE4CE2EE2E0DE2EFF
:10054000C6010E94BB09C8010E940108C7010E94A0
:10055000010856E1E52EF12CEC0EFD1EC70164E00A
:1005600071E00E9473088E01015F1F4F6091B4011A
:100570007091B501C8014AE00E94A608C701B80100
:100580000E940209BC01C6010E94BB09C8010E9469
:100590000108C7010E94010844E2E42EF12CEC0E90
:1005A000FD1EC7016AE071E00E9473088E01035EC0
:1005B0001F4F6091B2017091B301C8014AE00E94DF
:1005C000A608C701B8010E940209BC01C6010E9429
:1005D000BB09C8010E940108C7010E94010832E35B
:1005E000E32EF12CEC0EFD1EC70160E171E00E94CC
:1005F00073088E01055D1F4F6091B0017091B101CC
:10060000C8014AE00E94A608C701B8010E94020979
:10061000BC01C6010E94BB09C8010E940108C701B4
:100620000E94010820E4E22EF12CEC0EFD1EC70111
:1006300064E171E00E9473088E01075C1F4F6091B6
:10064000B6017091B701C8014AE00E94A608C7012F
:10065000B8010E940209BC01C6010E94BB09C80181
:100660000E940108C7010E9401089EE4E92EF12CB6
:10067000EC0EFD1EC70169E171E00E9473088E0156
:10068000095B1F4F6091AE017091AF01C8014AE054
:100690000E94A608C701B8010E940209BC01C60158
:1006A0000E94BB09C8010E940108C7010E940108FD
:1006B0008CE5E82EF12CEC0EFD1EC7016DE171E01A
:1006C0000E9473088E010B5A1F4F6091B801709100
:1006D000B901C8014AE00E94A608C701B8010E94FA
:1006E0000209BC01C6010E94BB09C8010E940108A1
:1006F000C7010E940108C60162E271E00E94CE09B2
:1007000060EB74E080E090E00E945405CE59DF4F2A
:100710000FB6F894DEBF0FBECDBFCF91DF911F9112
:100720000F91FF90EF90DF90CF90089581E090E0DF
:100730000E94C701089580E090E00E94C7010895DB
:100740008F929F92AF92BF92CF92DF92EF92FF92E1
:100750000F931F93CF93DF9390E0FC01E656FF4F7A
:1007600084908A579F4FFC01A491662311F4992429
:1007700001C0982C7FEFA72E7FEFB72E7FEFC72EFB
:100780007FE0D72EA222B322C422D52220E030E07F
:10079000A901B0E0FD01EE0FFF1FE458FF4F859166
:1007A00094910AC02A153B054C055D0509F452C019
:1007B0002F5F3F4F4F4F5F4FFC01608168216915EC
:1007C00089F30BC02A153B054C055D0509F442C0B1
:1007D0002F5F3F4F4F4F5F4F07C0AA0FBB1FA4585B
:1007E000BF4FFD0185919491FC01608168216915DD
:1007F00049F760E070E0CB01FD01C591D4910FC0D5
:100800007B018C01E20EF31E041F151FEA14FB048A
:100810000C051D05F9F06F5F7F4F8F4F9F4F7E01D5
:10082000AC2FBF2DEC91E821E91551F325E130E023
:1008300040E050E00E94FC0B9B01AC01205F3F4F69
:100840004F4F5F4F84E056954795379527958A958A
:10085000D1F703C020E030E0A901B901CA01DF915E
:10086000CF911F910F91FF90EF90DF90CF90BF90AD
:10087000AF909F908F900895833071F0843028F46A
:100880008130A1F0823021F514C08630B1F087307C
:10089000D1F08430E9F404C0809180008F7703C0E8
:1008A000809180008F7D80938000089584B58F773C
:1008B00002C084B58F7D84BD08958091B0008F778C
:1008C0008093B00008958091B0008F7D8093B00038
:1008D0000895EF92FF92CF93DF9390E0FC01E656EC
:1008E000FF4F44918A579F4FFC018491882389F1DF
:1008F00090E0880F991FFC01E859FF4F2591349132
:10090000D9018E589F4FFC0125913491E22EE701C9
:100910007E01F32EE701662349F49FB7F8948C918A
:10092000409584238C93888184230BC0623059F4D2
:100930009FB7F8948C91242F209582238C938881E3
:10094000842B888305C09FB7F8948C91842B8C935B
:100950009FBFDF91CF91FF90EF9008950F931F936A
:10096000DF93CF930F92CDB7DEB7282F30E0F90198
:10097000E255FF4F8491F901E656FF4F14912A5733
:100980003F4FF90104910023D9F0882321F06983B6
:100990000E943C046981E02FF0E0EE0FFF1FEE584B
:1009A000FF4F85919491DC019FB7F894662321F461
:1009B0008C911095812302C08C91812B8C939FBFC9
:1009C0000F90CF91DF911F910F9108951F920F9279
:1009D0000FB60F9211242F933F938F939F93AF9352
:1009E000BF938091BE019091BF01A091C001B091D1
:1009F000C1013091C2010196A11DB11D232F2D5FB0
:100A00002D3720F02D570196A11DB11D2093C20155
:100A10008093BE019093BF01A093C001B093C10128
:100A20008091BA019091BB01A091BC01B091BD0130
:100A30000196A11DB11D8093BA019093BB01A093B3
:100A4000BC01B093BD01BF91AF919F918F913F9138
:100A50002F910F900FBE0F901F9018959FB7F8948D
:100A60002091BA013091BB014091BC015091BD0170
:100A700086B5A89B06C08F3F21F02F5F3F4F4F4F99
:100A80005F4F9FBF542F432F322F2227280F311D36
:100A9000411D511D82E0220F331F441F551F8A95AF
:100AA000D1F7B901CA010895EF92FF920F931F93F6
:100AB000CF93DF937B018C010E942E05EB010FC0C9
:100AC0000E942E056C1B7D0B83E0683E780738F092
:100AD0000894E108F10801091109C851DC4FE1143B
:100AE000F1040105110561F7DF91CF911F910F917D
:100AF000FF90EF900895789484B5826084BD84B5AA
:100B0000816084BD85B5826085BD85B5816085BD08
:100B1000EEE6F0E0808181608083E1E8F0E0108221
:100B2000808182608083808181608083E0E8F0E062
:100B3000808181608083E1EBF0E08081846080834C
:100B4000E0EBF0E0808181608083EAE7F0E0808183
:100B500084608083808182608083808181608083E3
:100B60008081806880831092C10008958E3008F0E3
:100B70008E50877090912E019295990F990F907CCD
:100B8000982B90937C0080917A00806480937A0007
:100B900080917A0086FDFCCF209178003091790019
:100BA000932F80E030E0282B392BC9010895FC01F8
:100BB00084859585FC01E05CFF4F208131818E5B4F
:100BC0009F4FFC0180819181281B390B2F7330705E
:100BD000C9010895FC0184859585FC01E05CFF4F07
:100BE00040815181FC01EE5BFF4F20813181421732
:100BF000530741F00190F081E02DE80FF91F2081AB
:100C000030E002C02FEF3FEFC9010895FC01848559
:100C10009585FC01E05CFF4F40815181FC01EE5B5A
:100C2000FF4F208131814217530771F0A081B181BC
:100C3000A80FB91F2C918081918101968F739070BC
:100C40009183808330E002C02FEF3FEFC901089508
:100C5000FC0181A1882329F0A489B5898C9186FFA4
:100C6000FBCF11A20895FC0126853785D901A05C30
:100C7000BF4F8D919C9101968F739070D901AE5B9F
:100C8000BF4F4D915C91119784179507D1F3D9010E
:100C9000A05CBF4F0D90BC91A02DA20FB31F6C9311
:100CA000A685B785A05CBF4F11969C938E93A689AD
:100CB000B7892C9181E090E0078C02C0880F991FC2
:100CC0000A94E2F7282B2C9381E081A30488F5890C
:100CD000E02D80818064808381E090E00895FB01B5
:100CE000E05CFF4F208131812F5F3F4F2F733070C9
:100CF000DB01AE5BBF4F4D915C9111972417350717
:100D000039F0A081B181A60FB71F8C933183208366
:100D1000089508951F920F920FB60F9211242F93EA
:100D20003F934F935F936F937F938F939F93AF9373
:100D3000BF93EF93FF938091C00082FD07C0809125
:100D4000C60063EC71E00E946F0602C08091C6008D
:100D5000FF91EF91BF91AF919F918F917F916F9193
:100D60005F914F913F912F910F900FBE0F901F9069
:100D700018958BE492E00E94D705009711F00E942D
:100D8000890608951F920F920FB60F9211242F9388
:100D90003F938F939F93EF93FF932091470230915E
:100DA00048028091490290914A022817390731F48C
:100DB0008091C1008F7D8093C10014C0E0914902F1
:100DC000F0914A02E95FFD4F2081809149029091A4
:100DD0004A0201968F73907090934A028093490261
:100DE0002093C600FF91EF919F918F913F912F919A
:100DF0000F900FBE0F901F901895DF92EF92FF9209
:100E00000F931F93CF93DF93EC017A018B01DD24C5
:100E1000D394403081EE580780E0680780E078077F
:100E200049F4DD24EC89FD89108260E874E88EE1E4
:100E300090E00FC0EC89FD8981E090E008A002C03D
:100E4000880F991F0A94E2F7808360E079E08DE3D0
:100E500090E0A80197010E942E0C215030404040A4
:100E60005040569547953795279580E120303807B3
:100E700010F0DD20B1F6E889F9893083EA89FB8931
:100E8000208319A2EE89FF89408181E090E09C01D6
:100E90000C8C02C0220F331F0A94E2F7422B4083CE
:100EA000EE89FF8940819C010D8C02C0220F331F07
:100EB0000A94E2F7422B4083EE89FF8940819C012E
:100EC0000E8C02C0220F331F0A94E2F7422B40839C
:100ED000EE89FF8920810F8C02C0880F991F0A9428
:100EE000E2F7809582238083DF91CF911F910F914C
:100EF000FF90EF90DF90089510924E0210924D02F5
:100F000088EE93E0A0E0B0E080934F02909350020F
:100F1000A0935102B0935202EDE4F2E087E491E035
:100F20009293829383EC91E09587848787E092E0A7
:100F30009787868785EC90E0918B808B84EC90E09E
:100F4000938B828B80EC90E0958B848B81EC90E08E
:100F5000978B868B82EC90E0918F808F86EC90E06F
:100F6000938F828F84E0848F83E0858F87E0868FE4
:100F700085E0878F81E080A30895009729F0BC0168
:100F800080E090E00E94D10C0895EF92FF920F93C1
:100F90001F937B018C01611571058105910549F055
:100FA0000E94CC0CA80197010E94500C9B01AC013F
:100FB00003C020E030E0A901B901CA011F910F91DF
:100FC000FF90EF900895EF92FF920F931F937B0194
:100FD0008C01621773078407950764F4CA01B9018D
:100FE0006E197F09800B910B0E94C507E60EF71E54
:100FF000081F191FB701C8011F910F91FF90EF90B3
:101000000895FC01808191810E94630B0895CF9324
:10101000DF93EC0188819981009711F00E94630BA6
:10102000198218821D821C821B821A82DF91CF9145
:1010300008950F931F93CF93DF93EC018B016F5FA4
:101040007F4F888199810E94F009009731F0998340
:1010500088831B830A8381E001C080E0DF91CF9108
:101060001F910F910895CF93DF93EC0188819981AF
:10107000009729F08A819B818617970778F4CE0123
:101080000E941908882341F08C819D81009731F4DA
:10109000E881F981108202C080E001C081E0DF9127
:1010A000CF910895EF92FF920F931F93CF93DF9309
:1010B000EC017B018A01BA010E943308882321F4E4
:1010C000CE010E94070807C01D830C838881998187
:1010D000B7010E94E30CCE01DF91CF911F910F91D8
:1010E000FF90EF900895CF93DF93FC01118210825F
:1010F000138212821582148216826115710559F0CD
:10110000EB0109900020E9F7AE0141505040461B29
:10111000570B0E945208DF91CF9108950F931F93B0
:101120008C016115710561F0DB010D900020E9F77C
:10113000AD0141505040461B570B0E94520802C05F
:101140000E940708C8011F910F910895EF92FF9226
:101150000F931F93DF93CF93CDB7DEB762970FB690
:10116000F894DEBF0FBECDBF7C01CB01F701118229
:101170001082138212821582148216828E010F5FF2
:101180001F4FB80150E00E94EA0CC701B8010E944D
:101190008E0862960FB6F894DEBF0FBECDBFCF911A
:1011A000DF911F910F91FF90EF900895EF92FF92C2
:1011B0000F931F93CF93DF93EC017B010C811D8173
:1011C00061157105B9F04115510591F0040F151F16
:1011D000B8010E943308882369F0288139818C8105
:1011E0009D81820F931FB7010E94E30C1D830C8326
:1011F00081E001C080E0DF91CF911F910F91FF90BE
:10120000EF9008950F931F938C01FB016081718112
:10121000448155810E94D608882319F4C8010E9490
:101220000708C8011F910F910895FC0184819581E1
:101230006817790748F480819181009739F0680F29
:10124000791FFB018081089580E0089580E0089572
:10125000CF92DF92EF92FF920F931F93CF93DF9382
:101260006C017B018A01C0E0D0E00FC0D7016D9115
:101270007D01D601ED91FC910190F081E02DC60138
:101280000995C80FD91F015010400115110571F7BC
:10129000CE01DF91CF911F910F91FF90EF90DF90E2
:1012A000CF9008956115710591F0DB010D9000203C
:1012B000E9F7AD0141505040461B570BDC01ED9161
:1012C000FC910280F381E02D09959C0102C020E091
:1012D00030E0C9010895AF92BF92CF92DF92EF92B2
:1012E000FF920F931F93CF93DF937C016B01C0E0BC
:1012F000D0E000E010E010C0D701ED91FC91A0809B
:10130000B180C601BE010E941509682FC701F50111
:101310000995080F191F2196F60184819581C81738
:10132000D90750F3C801DF91CF911F910F91FF9022
:10133000EF90DF90CF90BF90AF900895DC01ED91DA
:10134000FC910190F081E02D099508950F931F9372
:10135000CF93DF93EC016DE00E949E098C01CE01DA
:101360006AE00E949E09080F191FC801DF91CF9102
:101370001F910F9108950F931F93CF93DF93EC016B
:101380000E946B098C01CE010E94A609080F191F4B
:10139000C801DF91CF911F910F9108950F931F9373
:1013A000CF93DF93EC010E9452098C01CE010E9481
:1013B000A609080F191FC801DF91CF911F910F9146
:1013C0000895CF93DF930E947B050E94FA01C9EB39
:1013D000D6E00E9439022097E1F30E94B906F9CFC6
:1013E0008F929F92AF92BF92CF92DF92EF92FF9235
:1013F0000F931F93CF93DF938C01CB010115110540
:1014000029F40E94C90A082F192FB5C0D8011297D4
:101410009801260F371F2A173B0708F4AAC0ED9042
:10142000FC901197E616F706D0F045E0E416F104BB
:1014300008F4A1C0A701445050404617570708F4CC
:101440009AC0A70142505040461B570BF9014193E7
:1014500051936D937C93CF010E94630B8CC05B0111
:10146000AE18BF0848018E0C9F1CE0916F02F091EE
:101470007002CC24DD24C0E0D0E041C0E815F905BD
:1014800099F560817181AB014E5F5F4F4A155B0535
:1014900058F1AB014A195B09CC24DD246894C1F8EA
:1014A000C40ED51E8280A380E5E0CE16D10448F09C
:1014B000F9018282A3825183408311969C938E937B
:1014C00009C0C7010296860F971F11969C938E93B1
:1014D000E82DFA2D209719F0FB83EA834CC0F09396
:1014E0007002E0936F0247C040815181C416D50657
:1014F00008F46A01EF0152814381E52FF42F309700
:1015000009F0BCCF40916D0250916E02481559050B
:10151000E9F4C816D906D0F4409133015091340152
:101520004115510541F44DB75EB760912F0170919F
:101530003001461B570B24173507D8F430936E0241
:1015400020936D0211969C938E9315C00E94C90A38
:10155000C82EE6016E01D92EE601209751F08C2DA0
:10156000B801A7010E94DA0CC8010E94630B860132
:1015700002C000E010E0C801DF91CF911F910F91F0
:10158000FF90EF90DF90CF90BF90AF909F908F90A3
:101590000895CF93DF938230910510F482E090E0BC
:1015A000E0916F02F091700240E050E020E030E006
:1015B00026C06081718168177907E0F068177907A4
:1015C00081F4828193812115310531F0D90113967F
:1015D0009C938E9312972BC09093700280936F020E
:1015E00026C04115510519F06417750718F4AB01B1
:1015F000E901DF019F0172816381E72FF62F3097A8
:10160000C1F64115510501F1481B590B44305105F4
:1016100080F412968D919C911397209719F09B83DB
:101620008A8304C09093700280936F02FD0132960A
:1016300046C0FD01E40FF51F819391934250504045
:1016400011965C934E933BC020916D0230916E02D7
:101650002115310541F4209131013091320130934F
:101660006E0220936D0220913301309134012115D7
:10167000310541F42DB73EB740912F015091300113
:10168000241B350BE0916D02F0916E02E217F30717
:10169000A0F42E1B3F0B2817390778F0AC014E5FE2
:1016A0005F4F2417350748F04E0F5F1F50936E02AF
:1016B00040936D028193919302C0E0E0F0E0CF018E
:1016C000DF91CF910895CF93DF93009709F491C0F4
:1016D000FC0132971382128260916F027091700246
:1016E0006115710581F420813181280F391F8091A6
:1016F0006D0290916E028217930799F5F0936E0236
:10170000E0936D0276C0DB0180E090E002C0CD0185
:10171000D901AE17BF0748F412962D913C9113974B
:1017200021153105A1F7CD0121C0B383A283EF01BB
:10173000499159919E01240F351FA217B30779F4DF
:101740002D913C911197240F351F2E5F3F4F318310
:10175000208312962D913C91139733832283009717
:1017600029F4F0937002E0936F0243C0DC011396FA
:10177000FC93EE9312974D915D91A40FB51FEA175C
:10178000FB0769F420813181240F351F2E5F3F4F05
:10179000EC0139832883228133813B832A83E0E073
:1017A000F0E002C0FB01BC01DB0112968D919C911F
:1017B00013970097B9F79B012E5F3F4F8D919C9136
:1017C0001197820F931F40916D0250916E0248173E
:1017D000590779F4309729F41092700210926F0231
:1017E00002C0138212822250304030936E02209346
:1017F0006D02DF91CF910895629FD001739FF00138
:10180000829FE00DF11D649FE00DF11D929FF00D90
:10181000839FF00D749FF00D659FF00D9927729FC7
:10182000B00DE11DF91F639FB00DE11DF91FBD0152
:10183000CF011124089597FB092E07260AD077FDC2
:1018400004D049D006D000201AF4709561957F4FDE
:101850000895F6F7909581959F4F0895A1E21A2E6D
:10186000AA1BBB1BFD010DC0AA1FBB1FEE1FFF1F44
:10187000A217B307E407F50720F0A21BB30BE40B94
:10188000F50B661F771F881F991F1A9469F76095DB
:101890007095809590959B01AC01BD01CF01089595
:1018A00097FB092E05260ED057FD04D0D7DF0AD0AE
:1018B000001C38F450954095309521953F4F4F4F7F
:1018C0005F4F0895F6F790958095709561957F4FDD
:1018D0008F4F9F4F0895AA1BBB1B51E107C0AA1F42
:1018E000BB1FA617B70710F0A61BB70B881F991FC1
:1018F0005A95A9F780959095BC01CD010895EE0FFA
:10190000FF1F0590F491E02D0994A0E0B0E0EBE812
:10191000FCE00C94230DEC01688179818A819B8124
:10192000611571058105910521F464E279ED8BE57E
:1019300097E02DE133EF41E050E00E94500C790137
:101940008A0127EA31E440E050E00E94FC0B5B0191
:101950006C01C801B7012CEE34EF4FEF5FEF0E942E
:10196000FC0B9B01AC012A0D3B1D4C1D5D1D57FF5F
:1019700004C02150304040405048288339834A8376
:101980005B835F77B901CA01CDB7DEB7EAE00C949B
:101990003F0D0E94850C089586E291E00E94850C1F
:1019A00008956093260170932701809328019093F6
:1019B00029010895FB01DC0102C001900D92415004
:1019C0005040D8F70895FB01DC0101900D920020F2
:1019D000E1F70895FB019F01E8944230C4F04532DD
:1019E000B4F44A3029F497FB1EF4909581959F4FEB
:1019F000642F77270E946B0C805D8A330CF0895D21
:101A00008193CB010097A1F716F45DE25193108208
:101A1000C9010C940B0DDC01FC01672F7191772338
:101A2000E1F7329704C07C916D9370836291AE1799
:101A3000BF07C8F308952F923F924F925F926F9223
:101A40007F928F929F92AF92BF92CF92DF92EF924E
:101A5000FF920F931F93CF93DF93CDB7DEB7CA1BCF
:101A6000DB0B0FB6F894DEBF0FBECDBF09942A88FA
:101A7000398848885F846E847D848C849B84AA84A2
:101A8000B984C884DF80EE80FD800C811B81AA812F
:101A9000B981CE0FD11D0FB6F894DEBF0FBECDBFFA
:101AA000ED01089510E0C6ECD0E004C0FE010E94F4
:0E1AB000810C2296C83CD107C9F7F894FFCFED
:101ABE005546200049524C462000495252462000BD
:101ACE00554C200049524C2000555220004952528C
:101ADE0020000A0A0A00010000004402BB01018036
:101AEE0000710200000D000A00070004000100FE54
:101AFE00FFFBFF0000000033062809D7050606EAA3
:041B0E0005280600A0
:00000001FF
