:100000000C9463000C945C0F0C94890F0C948B007F
:100010000C948B000C948B000C948B000C948B0034
:100020000C948B000C948B000C948B000C94540655
:100030000C948B000C948B000C948B000C948B0014
:100040000C94B60F0C948B000C9439110C947C1109
:100050000C948B000C948B000C948B000C948B00F4
:100060000C948B000C948B00000000070002010030
:100070000003040600000000000000000102040864
:100080001020408001020408102001020408102002
:10009000040404040404040402020202020203032E
:1000A00003030303000000002300260029000000D2
:1000B0000000250028002B0000000000240027007D
:1000C0002A008A0C381211241FBECFEFD8E0DEBF01
:1000D000CDBF11E0A0E0B1E0E8EAF8E202C005908F
:1000E0000D92AA3DB107D9F713E0AAEDB1E001C026
:1000F0001D92A132B107E1F710E0C6ECD0E004C0D8
:100100002297FE010E944514C23CD107C9F70E9404
:10011000D2130C9452140C9400000895FC017183C6
:10012000608320E030E044EF51E0FC01E20FF31F78
:10013000538342832E5F3F4F2E303105B1F7089530
:10014000EF92FF920F931F93CF93DF93EC0188817F
:100150000E94841088810E94841088810E948410EB
:100160007E018EE0E80EF11C8E0188810E948410D1
:10017000F801938382830E5F1F4F0E151F05A9F7A9
:10018000DE01FE0112968D919C911397228133819D
:100190002817390734F413963C932E9312979383C0
:1001A00082833296EE15FF0569F71296AE17BF07E8
:1001B00041F788859985DF91CF911F910F91FF902D
:1001C000EF900895FC01CB014081518162817381E0
:1001D0002AE030E00C9470139B01DC018D919C911E
:1001E000009739F0DC01ED91FC910190F081E02D58
:1001F000099466E271E0C9010C94CC12FC01808183
:1002000091810C940301BF92CF92DF92EF92FF9203
:100210000F931F93CF93DF937C01EB01009771F451
:1002200066E271E0CE01DF91CF911F910F91FF90B7
:10023000EF90DF90CF90BF900C94CC12E881F981C1
:100240000190F081E02D62E2CE0109958C01F70169
:1002500061917F01662341F1EBE0F1E09081911122
:1002600017C0B180E881F981BB20B1F00190F08125
:10027000E02D6CE5CE0109956C01E881F9810190D2
:10028000F081E02D6B2DCE0109958C0D9D1D09C0CF
:10029000961739F33296E2CF0190F081E02DCE012E
:1002A0000995080F191FD3CFE881F9810190F081DA
:1002B000E02D62E2CE010995800F911FDF91CF9171
:1002C0001F910F91FF90EF90DF90CF90BF90089516
:1002D0006F927F928F929F92AF92BF92CF92DF9256
:1002E000EF92FF920F931F93CF93DF937C01EB016B
:1002F000E881F9810190F081E02D6BE7CE0109954D
:100300008C01F701A280B380C680D78075014501BA
:10031000F2E08F0E911C1C141D04B4F5BE01F70110
:10032000808191810E9403013C01E881F981019063
:10033000F081E02D6AE3CE010995860D971D080F27
:10034000191FF701EA19FB09E80DF91D0480F58171
:10035000E02DBE01C70102960995080F191FF8E0AC
:10036000EF0EF11C81E0C816D10451F0E881F9814B
:100370000190F081E02D6CE2CE010995080F191F64
:10038000E1E0CE1AD108C7CFE881F9810190F08170
:10039000E02D6DE7CE010995800F911FDF91CF9180
:1003A0001F910F91FF90EF90DF90CF90BF90AF9093
:1003B0009F908F907F906F900895EF92FF920F9390
:1003C0001F93CF93DF937B01FC01C281D381068110
:1003D0001781101611065CF4B701888199810E947B
:1003E0004914892B39F0289601501109F2CF80E089
:1003F00090E001C0CE01DF91CF911F910F91FF904E
:10040000EF9008950F931F93CF93DF93EC018B012F
:100410000E94DD01009711F0029622C08E819F811B
:100420002C813D818217930784F49C0143E0220FC5
:10043000331F4A95E1F7EA81FB81E20FF31F019335
:10044000119301969F838E8302C0EAEDF1E0108242
:100450001182128213828EEF90E095838483CF0104
:10046000DF91CF911F910F9108950895FC01718341
:10047000608320E030E044EF51E0FC01E20FF31F25
:10048000538342832E5F3F4F2E303105B1F70895DD
:10049000EF92FF920F931F93CF93DF93EC0188812C
:1004A0000E94841088810E94841088810E94841098
:1004B0007E018EE0E80EF11C8E0188810E9484107E
:1004C000F801938382830E5F1F4F0E151F05A9F756
:1004D000DE01FE0112968D919C911397228133814A
:1004E0002817390734F413963C932E93129793836D
:1004F00082833296EE15FF0569F71296AE17BF0795
:1005000041F788859985DF91CF911F910F91FF90D9
:10051000EF900895FC0182E0808384E0818387E08E
:10052000828388E083830895CF93DF93EC0161E0B9
:1005300088810E94940E61E089810E94940E61E09E
:1005400089E00E94940E61E08A810E94940E61E02D
:100550008B810E94940E61E08AE00E94940E80EAF2
:100560008093800081E18093810080E991E0909305
:10057000870080938600DF91CF910895CF93DF931A
:10058000EC0177FF05C071956195710981E001C0AB
:1005900080E0613991E0790714F060E971E07093CF
:1005A000890060938800672B11F460E009C08823FC
:1005B00031F060E088810E94CD0E61E005C061E00D
:1005C00088810E94CD0E60E08981DF91CF910C94EB
:1005D000CD0ECF93DF93EC0177FF05C07195619548
:1005E000710981E001C080E0613991E0790714F080
:1005F00060E971E070938B0060938A00672B11F4BF
:1006000060E009C0882331F060E08A810E94CD0E4D
:1006100061E005C061E08A810E94CD0E60E08B81BF
:10062000DF91CF910C94CD0E0F931F93CF93DF9357
:10063000EC018A010E94BE02B801CE01DF91CF9188
:100640001F910F910C94E9020F931F93CF93DF93A7
:100650008C01EB0177FF03C0D195C195D10960E012
:10066000F80180810E94CD0E60E0F80181810E9436
:10067000CD0EC139F1E0DF0714F0C0E9D1E0D0932D
:100680008900C0938800DF91CF911F910F91089549
:100690000F931F93CF93DF938C01EB0177FF03C080
:1006A000D195C195D10960E0F80182810E94CD0EFB
:1006B00060E0F80183810E94CD0EC139F1E0DF07CF
:1006C00014F0C0E9D1E0D0938B00C0938A00DF9191
:1006D000CF911F910F9108950F931F93CF93DF93A5
:1006E000EC018A010E942403B801CE01DF91CF9171
:1006F0001F910F910C9448030895CF93DF93EC0161
:1007000060E08A810E94CD0E61E08A810E94CD0E58
:1007100020E432E44FE050E060E088810E94E00D88
:1007200022E330E040E050E00E94FE13C901DF9177
:10073000CF910895CF93DF93EC01842F7983688361
:100740004A835B8361E00E94940E61E08A810E948B
:10075000CD0E60E088810E94940EC4E0D1E06991E2
:1007600087E792E00E94FB1081E0C830D807B9F714
:10077000DF91CF9108958091640290916502019775
:100780009093650280936402809164029091650267
:100790002091620230916302821B930B9093670257
:1007A00080936602089560E083E00E94940E60E00A
:1007B0008DE00C94940E40E855E260E070E087E72D
:1007C00092E00E94B7116BE271E087E792E00E942D
:1007D000F3120E94D30380EE91E00E94940241E163
:1007E00050E06CE070E08CE492E00E949A0341E1FA
:1007F00050E066E070E088E492E00E949A0341E1F4
:1008000050E065E070E084E492E00E949A0363E1C6
:1008100070E084E292E00E948E0062E170E084E386
:1008200092E00E948E006EE070E084E192E00E940F
:100830008E0060E170E084E092E00E948E006FE044
:1008400070E084EF91E00C943602AF92BF92CF92A9
:10085000DF92EF92FF920F931F93CF93DF93CDB769
:10086000DEB7C857D1090FB6F894DEBF0FBECDBFB3
:10087000CE0109969C838B838BE090E09E838D83D1
:1008800018861F8287EC91E09A838983C090560274
:10089000D090570261E371E08E010F5F1F4FC801D6
:1008A0000E94020222EEE22E20E0F22EFC01F582EE
:1008B000E482A601662757FD6095762F4083518319
:1008C00062837383C0905402D090550263E371E059
:1008D000C8010E940202FC01F582E482A60166279B
:1008E00057FD6095762F4083518362837383C09058
:1008F0000801D090090165E371E0C8010E9402027D
:10090000FC01F582E482A601662757FD6095762FEB
:100910004083518362837383C090F201D090F301CE
:100920006FE371E0C8010E940202FC01F582E482DB
:10093000A601662757FD6095762F40835183628319
:100940007383C090F001D090F10163E471E0C801BD
:100950000E940202FC01F582E482A601662757FD8F
:100960006095762F4083518362837383C090EE013C
:10097000D090EF0167E471E0C8010E940202FC011F
:10098000F582E482A601662757FD6095762F4083A5
:100990005183628373836091EA017091EB0163502C
:1009A000710933E8C32E3AE1D32EC6010E94EA133F
:1009B0005B01F4E0AF1AB1086BE471E0C8010E947A
:1009C0000202FC01F582E482A501662757FD6095CD
:1009D000762F40835183628373836091EC01709121
:1009E000ED0163507109C6010E94EA135B01F4E056
:1009F000AF1AB10864E571E0C8010E940202FC016F
:100A0000F582E482A501662757FD6095762F408325
:100A10005183628373836091E6017091E7016350B3
:100A20007109C6010E94EA135B01F4E0AF1AB10834
:100A30006DE571E0C8010E940202FC01F582E482CA
:100A4000A501662757FD6095762F40835183628309
:100A500073836091E4017091E50163507109C601EF
:100A60000E94EA136B01F4E0CF1AD10866E671E048
:100A7000C8010E940202FC01F582E482A6016627F9
:100A800057FD6095762F4083518362837383609115
:100A9000E8017091E901615F7F4F8BE191E40E9471
:100AA000EA136B01FAE0CF1AD1086FE671E0C801D2
:100AB0000E940202FC01F582E482A601662757FD2E
:100AC0006095762F408351836283738381E690E043
:100AD0008C0F9D1F0896A5969FAF8EAFA59782E0BD
:100AE00090E0A7969FAF8EAFA797A9961FAE1EAEB8
:100AF000A99781EC91E0A3969FAF8EAFA39767E78C
:100B000071E0CE018F599F4F0E9402022EEF30E01C
:100B1000FC01358324832CE731E03183208364E8B2
:100B200071E0CE018F599F4F0E9402022CEE30E0FF
:100B3000FC013583248311830083BE016F597F4FED
:100B400087E792E00E940513C858DF4F0FB6F8946C
:100B5000DEBF0FBECDBFDF91CF911F910F91FF90F0
:100B6000EF90DF90CF90BF90AF900895CF93DF9339
:100B7000C5E0D0E02197209769F08CE492E00E94D4
:100B80007D039093F3018093F201009731F1893C4A
:100B900091051CF584E292E00E94A0009093ED0183
:100BA0008093EC0184E392E00E94A0009093EB011B
:100BB0008093EA01C5E0D0E021972097A9F088E46E
:100BC00092E00E947D039093EF018093EE010097E5
:100BD000B1F1893C91059CF507C062E070E080E0CE
:100BE00090E00E942310C6CF84E192E00E94A00012
:100BF0009093E7018093E60184EF91E00E94480220
:100C00009093E9018093E80184E092E00E94A000C3
:100C10009093E5018093E401C5E0D0E0219720970F
:100C2000A9F084E492E00E947D039093F101809307
:100C3000F001009779F0893C910564F407C062E007
:100C400070E080E090E00E942310B6CFDF91CF915A
:100C50000C94250462E070E080E090E00E94231094
:100C6000DDCFF89410928000E1E8F0E010828AE194
:100C700096E09093890080938800808188608083CB
:100C8000808181608083808184608083EFE6F0E0F2
:100C900080818260808378940895F894EFE6F0E094
:100CA00080811082789408951F920F920FB60F9250
:100CB00011242F933F934F935F936F937F938F9361
:100CC0009F93AF93BF93EF93FF93809160029091B6
:100CD0006102029799F48091660290916702609197
:100CE0006602709167024CE751E0481B590B64584B
:100CF0007E4F80EE91E00E94140326C08091600236
:100D000090916102019749F4809166029091670287
:100D10006CE271E0681B790B13C040916602509140
:100D20006702209168023091690288EC90E0841B90
:100D3000950B829FB001839F700D929F700D1124BF
:100D400080EE91E00E94E902FF91EF91BF91AF9197
:100D50009F918F917F916F915F914F913F912F91D3
:100D60000F900FBE0F901F901895CF93DF930E94A6
:100D7000B605C091EC01D091ED016091EA0170914E
:100D8000EB0163507109E3E8FAE1CF010E94EA1335
:100D90009B012450310927313105ECF4BE01635029
:100DA0007109CF010E94EA1364507109673171051E
:100DB00094F4CB01821B930B07960F9760F48091FC
:100DC000F2019091F301681B790B665F7F4F81E020
:100DD0006531710508F080E0DF91CF910895809131
:100DE0005602909157029C012E5F3F4F25303105EE
:100DF00080F0439774F42091540230915502C90158
:100E00000296059730F081E02E3031051CF480E029
:100E1000089581E008958091F2019091F3010F9778
:100E20008CF08091EA019091EB018139914054F46A
:100E300081E02091EC013091ED01213931401CF429
:100E400080E0089581E00895CF93DF93C3E0D0E080
:100E500040E951E062E771E080EE91E00E946C03AE
:100E600021972097A9F7DF91CF910895CF93DF9332
:100E7000EC0181E090E09093610280936002109217
:100E80006702109266028CE291E090935D0280937B
:100E90005C02C130D10519F484E191E015C082E013
:100EA00090E090936102809360028CE791E09093D0
:100EB0005D0280935C0227E231E0C29FC001C39FC4
:100EC000900DD29F900D1124909363028093620243
:100ED00090936502809364020E94310643E050E0E3
:100EE0006BEB73E081E00E942C0F80EE91E00E949A
:100EF000940240915C0250915D0260915C0270919D
:100F00005D0280EE91E00E94140380916202909154
:100F1000630201979093630280936202892B59F0D8
:100F20008DE00E94030F892BD9F78DE00E94030FFB
:100F3000892BD9F3EACF0E944D0681E00E944C0F25
:100F40000E94240780910801909109018230910547
:100F5000C9F01CF4019739F049C08330910509F1BB
:100F6000049791F143C080915402909155028C1BDB
:100F70009D0B90935502809354020297BCF582E03A
:100F800090E01DC080915602909157028C0F9D1FDA
:100F90009093570280935602449744F183E190E086
:100FA00021C080915402909155028C0F9D1F909307
:100FB0005502809354020F97CCF08EE090E090930E
:100FC00055028093540212C08091560290915702AC
:100FD0008C1B9D0B9093570280935602029734F41A
:100FE00082E090E0909357028093560262E370E0B3
:100FF00080E090E0DF91CF910C942310CF93DF93AA
:10100000C3E0D0E040E951E060E971E080EE91E0BA
:101010000E946C0321972097A9F7DF91CF91089543
:101020000F931F93CF93DF9384E392E00E94A0007D
:10103000EC0184E292E00E94A0009C01BE0163509A
:101040007109C3E8DAE1CE010E94EA13FB012350E3
:101050003109CE01B9010E94EA13E617F7071CF423
:1010600084E392E002C084E292E00E94A000BC010E
:1010700063507109CE010E94EA13EB0124974AE004
:1010800050E0BE0187E792E00E94BA1303E81AE13C
:1010900060970CF43FC04EEB50E06EEB70E080EEDA
:1010A00091E00E94140363E070E080E090E00E9411
:1010B000231084E392E00E94A000EC0184E292E01D
:1010C0000E94A0009C01BE0163507109C8010E94EA
:1010D000EA13FB0123503109C801B9010E94EA1348
:1010E000E617F7071CF484E392E002C084E292E082
:1010F0000E94A000BC0163507109C8010E94EA135C
:10110000EB0124974AE050E0BE0187E792E00E949D
:10111000BA13BECFDF91CF911F910F910C94FE07B0
:10112000CF93DF93EC0110926102109260029093D2
:101130006902809368021092670210926602813001
:10114000910519F483E891E002C088E891E090935A
:1011500063028093620290936502809364020E940E
:10116000310643E050E06BEB73E081E00E942C0F0E
:1011700080EE91E00E949402209168023091690211
:10118000809168029091690268EC629FA001639F60
:10119000500D112428E3289FB001299F700D781B62
:1011A000112480EE91E00E9414032091620230919C
:1011B0006302215031093093630220936202232B92
:1011C00059F08DE00E94030F892BD9F78DE00E9422
:1011D000030F892BD9F3E9CF0E944D0681E00E94CD
:1011E0004C0F0E94FE0720910801309109012C0F3D
:1011F0003D1F2530310519F481E090E00AC021152A
:10120000310529F0309309012093080106C084E0DC
:1012100090E090930901809308016EE170E080E016
:1012200090E0DF91CF910C9423100F931F93CF93F5
:10123000DF93CEE5D1E084E392E00E94A0008C0130
:1012400084E292E00E94A000081719072CF442E300
:1012500050E06EEC7FEF07C08017910744F44EEC2E
:101260005FEF62E370E080EE91E00E94140321974B
:10127000209709F7DF91CF911F910F910C94FE07F2
:10128000EF92FF920F931F93CF93DF93C0EBD4E0C5
:1012900084E392E00E94A0008C0184E292E00E942C
:1012A000A0007C0167E070E080E090E00E942310E5
:1012B0009701E016F1060CF49801293F81E0380708
:1012C0002CF44AE550E06AE570E00FC02F3F314052
:1012D00044F4DF91CF911F910F91FF90EF900C9408
:1012E000FE0746EA5FEF66EA7FEF80EE91E00E943C
:1012F00014032197209761F6ECCF0E94B50688234E
:1013000081F00E94400962E370E080E090E00E947A
:1013100023100E94150960E570E080E090E00C94D5
:1013200023100895EF92FF920F931F93CF93DF93B3
:10133000109259021092580203E81AE1C3E0D0E07B
:1013400044E0E42EF12C209152023091530280911E
:10135000560290915702281B390B37FF03C0319575
:1013600021953109233031050CF472C00E94B60575
:101370006091E6017091E70163507109C8010E9414
:10138000EA1360317105B4F08091580290915902CE
:101390000196909359028093580203975CF181E083
:1013A00090E00E9490088FEF9FEF909359028093F6
:1013B000580244C0109259021092580220915A02C9
:1013C00030915B022150310930935B0220935A0225
:1013D000232B81F481E090E00E9490080E947D0917
:1013E0008FEF9FEF0E949008F0925B02E0925A020A
:1013F0000E94B6050E940B07882329F10E947D09EF
:101400008091F2019091F3010D97A4F08091EA018F
:101410009091EB01803991406CF48091EC019091B6
:10142000ED018139914034F081E090E090935902D0
:10143000809358028FEF9FEF0E949008D0935B0239
:10144000C0935A0280CF81E090E00E9436077BCFA4
:101450002091500230915102809154029091550296
:10146000281B390B37FF03C03195219531092330F3
:1014700031050CF07BCFDF91CF911F910F91FF9041
:10148000EF900895BF92CF92DF92EF92FF920F9369
:101490001F93CF93DF930E94B6056091EC0170918A
:1014A000ED0163507109C3E8DAE1CE010E94EA134D
:1014B000FB016091EA017091EB0163507109CE016B
:1014C0000E94EA13E617F7070CF4BF016450710994
:1014D0008091F2019091F301681779070CF4BC0137
:1014E00085E0869F7001879FF00C1124C2E0D0E058
:1014F00001E010E063E8C62E6AE1D62E75E0B72E53
:1015000081E090E00E9490080E94B6056091EC0195
:101510007091ED0163507109C6010E94EA13FB014D
:101520006091EA017091EB0163507109C6010E945C
:10153000EA13E617F7070CF4BF01645071098091B4
:10154000F2019091F301681779070CF4BC01C430E3
:10155000D10531F09B01220F331F260F371F05C025
:10156000B69E9001B79E300D1124E216F30614F0DA
:10157000970101C08E012196C530D10511F0790186
:10158000BFCF0330110579F00430110599F0023016
:10159000110561F481E090E00E94900881E090E004
:1015A0000E94900803C08FEF9FEF02C081E090E09F
:1015B0000E9490080E94B605C0915602D091570231
:1015C000E0905402F090550203E010E08091EE01AB
:1015D0009091EF01081719074CF4C0915602D09171
:1015E0005702E0905402F09055028C012091F001D6
:1015F0003091F101021713077CF4C0915602D0918B
:101600005702D195C195D109E0905402F09055024E
:10161000F194E194F10889010E940B07811107C040
:1016200081E090E00E9436070E94B605CFCF0E946D
:101630007D090E94EF0681115FC081E090E00E9469
:10164000900881E090E00E9490089E01D7FF04C0BE
:10165000222733272C1B3D0B809156029091570275
:10166000281B390B37FF03C0319521953109C7017C
:10167000F7FE03C0919581959109409154025091D4
:101680005502841B950B97FF03C091958195910995
:101690008901080F191F0115110549F00E94B605AF
:1016A00081E090E00E94360701501109F4CFD7FF86
:1016B00003C08FEF9FEF02C081E090E00E9490088E
:1016C0000E94B6050E940B07811105C081E090E0E1
:1016D0000E943607F5CF0E947D098FEF9FEF0E9491
:1016E0009008DF91CF911F910F91FF90EF90DF90C5
:1016F000CF90BF900C94EF068FEF9FEF0E94900861
:1017000081E0DF91CF911F910F91FF90EF90DF90DB
:10171000CF90BF900895809108019091090103979F
:1017200041F40E9410080E947D098FEF9FEF0E94F4
:1017300090080E9410080E947D0981E090E00E94BC
:1017400090080E9410080E947D0981E090E00E94AC
:10175000900881E090E00C949008892B11F00C9493
:101760008B0B8091080190910901019741F40E942F
:1017700010080E947D098FEF9FEF0E9490080E9441
:1017800010080E947D0981E090E00E9490080E946C
:1017900010080E947D0981E090E00C94900881E09F
:1017A00090E0909353028093520290935102809361
:1017B00050020E94920982E090E090935702809339
:1017C0005602909355028093540280E090E00C946E
:1017D000AD0B84E190E090935302809352028FE02E
:1017E00090E090935102809350020E94920983E10D
:1017F00090E090935702809356028EE090E0909391
:101800005502809354020C948B0B0F931F93CF932C
:10181000DF93CDB7DEB768970FB6F894DEBF0FBE83
:10182000CDBF8AE090E0909357028093560288E003
:1018300090E0909355028093540281E090E0909361
:101840000901809308010E94420A8823E1F384E0A1
:1018500090E090935B0280935A022091560230915F
:101860005702233031059CF080915402909155022B
:101870008E3091051CF00E94E90B03C02331310525
:101880004CF00E94CF0B81E090E00E9490080E94F3
:10189000E90B02C00397ACF30E94CF0BCE0109966F
:1018A0009C838B8382E090E09E838D8318861F82C9
:1018B00081EC91E09A83898367E771E0CE0101961C
:1018C0000E9402020EEF10E0FC011583048329E858
:1018D00031E03183208364E871E0CE0101960E94FB
:1018E0000202FC011583048320E931E03183208367
:1018F000BE016F5F7F4F87E792E00E9405136896F5
:101900000FB6F894DEBF0FBECDBFDF91CF911F9110
:101910000F9108958CE492E00E947C0388E492E0A9
:101920000E947C0384E492E00E947C0384E392E0C2
:101930000E948D0084E292E00E948D0084E192E09A
:101940000E948D0084E092E00E948D0084EF91E07F
:101950000E94350280EE91E00C948A0287E792E0C3
:101960000E94A110892BD1F387E792E00E94CE104C
:101970008335910599F764E670E080E090E00C947F
:10198000231087E792E00E94A110892BD1F387E70B
:1019900092E00E94CE1008950F931F93CF93DF9390
:1019A000CDB7DEB768970FB6F894DEBF0FBECDBFD8
:1019B0000E94C10C182F992787FD9095C0978A30F7
:1019C000910510F40E943607123519F481E090E079
:1019D00004C01C3429F48FEF9FEF0E949008E8CFD9
:1019E000173431F7CE0109969C838B8382E090E017
:1019F0009E838D8318861F8281EC91E09A83898370
:101A000067E771E0CE0101960E9402020EEF10E03E
:101A1000FC011583048329E831E03183208364E8E5
:101A200071E0CE0101960E940202FC01158304833D
:101A300028E931E031832083BE016F5F7F4F87E764
:101A400092E00E94051368960FB6F894DEBF0FBEB1
:101A5000CDBFDF91CF911F910F9108951F93CF9329
:101A6000DF9310925F0210925E021AE010925F0202
:101A700010925E020E94C10CC82FDD27C7FDD095D1
:101A8000CE01C0970A9788F420915E0230915F02E0
:101A9000129FC001139F900D11248C0F9D1FC097A2
:101AA00090935F0280935E02E5CF80915E029091F9
:101AB0005F02892B31F080915E0290915F020E945B
:101AC0003607C235D10519F481E090E005C0CC3469
:101AD000D10529F48FEF9FEF0E949008C7CFC7343C
:101AE000D10521F6DF91CF911F910C9410080F932F
:101AF0001F93CF93DF93CDB7DEB768970FB6F894F7
:101B0000DEBF0FBECDBF02E010E01093570200937E
:101B1000560210935502009354020E942E0DCE01DE
:101B200009969C838B831E830D8318861F8281EC0C
:101B300091E09A83898367E771E0CE0101960E9464
:101B400002020EEF10E0FC011583048329E831E066
:101B50003183208364E871E0CE0101960E94020285
:101B6000FC011583048320EA31E031832083BE0128
:101B70006F5F7F4F87E792E00E94051368960FB66C
:101B8000F894DEBF0FBECDBFDF91CF911F910F91B3
:101B900008950E94AE0C0E94C10C803531F0823550
:101BA00061F0853461F40C94050C69EA71E087E713
:101BB00092E00E94F3120C94770D0C94CC0C0895D3
:101BC0008F929F92AF92BF92CF92DF92EF92FF924D
:101BD0000F931F93CF93DF9390E0FC01E458FF4FE6
:101BE0000491FC01E057FF4F7491611102C010E0B5
:101BF00001C0102FDA01C901BF70672F70E0660FB6
:101C0000771F6C557F4F812C912C5401FB01C5919E
:101C1000D491E881E023E11310C0750164012FEF36
:101C2000C21AD20AE20AF20A88169906AA06BB0666
:101C300009F441C046015701ECCFFB01C591D49195
:101C4000E881E023E11779F0750164012FEFC21AF2
:101C5000D20AE20AF20A88169906AA06BB0659F1C8
:101C600046015701EDCF88199909AA09BB0920E05F
:101C700030E0A901FB01C591D49168816023611313
:101C80000AC0281739074A075B07A9F02F5F3F4FA3
:101C90004F4F5F4FF2CFA5E1B0E00E94DF13605FCE
:101CA0007F4F8F4F9F4F24E0969587957795679547
:101CB0002A95D1F703C060E070E0CB01DF91CF91AE
:101CC0001F910F91FF90EF90DF90CF90BF90AF905A
:101CD0009F908F900895833081F028F4813099F09F
:101CE0008230A1F008958630A9F08730B9F08430B1
:101CF000D1F4809180008F7D03C0809180008F7728
:101D000080938000089584B58F7702C084B58F7D5D
:101D100084BD08958091B0008F7703C08091B0009A
:101D20008F7D8093B0000895CF93DF9390E0FC0106
:101D3000E458FF4F2491FC01E057FF4F8491882322
:101D400049F190E0880F991FFC01E854FF4FA591DD
:101D5000B49182559F4FFC01C591D4919FB76111F9
:101D600008C0F8948C91209582238C9388818223DB
:101D70000AC0623051F4F8948C91322F309583234D
:101D80008C938881822B888304C0F8948C91822B59
:101D90008C939FBFDF91CF9108950F931F93CF93A3
:101DA000DF931F92CDB7DEB7282F30E0F901E85955
:101DB000FF4F8491F901E458FF4F1491F901E05766
:101DC000FF4F04910023C9F0882321F069830E940A
:101DD0006B0E6981E02FF0E0EE0FFF1FE255FF4F21
:101DE000A591B4919FB7F8948C91611103C010959F
:101DF000812301C0812B8C939FBF0F90DF91CF91E6
:101E00001F910F910895CF93DF93282F30E0F901B0
:101E1000E859FF4F8491F901E458FF4FD491F9013B
:101E2000E057FF4FC491CC2391F081110E946B0EBB
:101E3000EC2FF0E0EE0FFF1FEC55FF4FA591B49192
:101E40002C912D2381E090E021F480E002C080E01D
:101E500090E0DF91CF9108958230E8F4E82FF0E030
:101E6000EE0FFF1FE659FD4F71836083813041F013
:101E7000809169008C7F842B80936900E89A089593
:101E800080916900440F551F440F551F837F842B99
:101E900080936900E99A0895823068F4813011F0E6
:101EA000E89801C0E998E82FF0E0EE0FFF1FE6592F
:101EB000FD4F1182108208951F920F920FB60F925C
:101EC00011242F933F934F935F936F937F938F933F
:101ED0009F93AF93BF93EF93FF9380916A0290918A
:101EE0006B02892B29F0E0916A02F0916B0209954F
:101EF000FF91EF91BF91AF919F918F917F916F91E2
:101F00005F914F913F912F910F900FBE0F901F90B7
:101F100018951F920F920FB60F9211242F933F9393
:101F20004F935F936F937F938F939F93AF93BF93E1
:101F3000EF93FF9380916C0290916D02892B29F0B1
:101F4000E0916C02F0916D020995FF91EF91BF91C4
:101F5000AF919F918F917F916F915F914F913F9141
:101F60002F910F900FBE0F901F9018951F920F92F8
:101F70000FB60F9211242F933F938F939F93AF939C
:101F8000BF9380916F0290917002A0917102B09105
:101F9000720230916E0223E0230F2D3720F4019658
:101FA000A11DB11D05C026E8230F0296A11DB11D7C
:101FB00020936E0280936F0290937002A09371023F
:101FC000B09372028091730290917402A091750295
:101FD000B09176020196A11DB11D8093730290937A
:101FE0007402A0937502B0937602BF91AF919F9156
:101FF0008F913F912F910F900FBE0F901F901895CA
:102000003FB7F8948091730290917402A091750289
:10201000B091760226B5A89B05C02F3F19F0019616
:10202000A11DB11D3FBF6627782F892F9A2F620F00
:10203000711D811D911D42E0660F771F881F991F3A
:102040004A95D1F70895CF92DF92EF92FF92CF9306
:10205000DF936B017C010E940010EB01C114D104DD
:10206000E104F10479F00E9400106C1B7D0B683EC6
:102070007340A0F381E0C81AD108E108F108C85103
:10208000DC4FECCFDF91CF91FF90EF90DF90CF90BE
:102090000895789484B5826084BD84B5816084BDE0
:1020A00085B5826085BD85B5816085BDEEE6F0E0D1
:1020B000808181608083E1E8F0E01082808182602D
:1020C0008083808181608083E0E8F0E080818160AE
:1020D0008083E1EBF0E0808184608083E0EBF0E0DE
:1020E000808181608083EAE7F0E080818460808382
:1020F000808182608083808181608083808180682C
:1021000080831092C10008958E3008F08E50877041
:1021100020910A0190E4299F90011124822B809341
:102120007C0080917A00806480937A0080917A00AC
:1021300086FDFCCF809178002091790090E0922B71
:102140000895FC0124853585F901E05CFF4F80810D
:102150009181F901EE5BFF4F20813181821B930B4E
:102160008F7399270895FC0184859585FC01E05CB7
:10217000FF4F40815181FC01EE5BFF4F2081318197
:102180004217530741F00190F081E02DE80FF91F4D
:10219000808190E008958FEF9FEF0895FC01848582
:1021A0009585FC01E05CFF4F40815181FC01EE5BB5
:1021B000FF4F208131814217530779F0A081B1810F
:1021C000A80FB91F8C91208131812F5F3F4F2F7352
:1021D00033273183208390E008958FEF9FEF089598
:1021E000FC0181A1882329F0A489B5898C9186FFFF
:1021F000FBCF11A20895CF93DF93FC01268537858D
:10220000D901A05CBF4F8D919C91119701968F735E
:102210009927E901CE5BDF4F4881598184179507E3
:10222000D9F30D90BC91A02DA20FB31F6C93A6857E
:10223000B785A05CBF4F11969C938E93A689B789F2
:102240002C9181E090E0078C02C0880F991F0A94BE
:10225000E2F7282B2C9381E081A30488F589E02DF7
:1022600080818064808381E090E0DF91CF91089548
:1022700008951F920F920FB60F9211242F933F9340
:102280004F938F939F93EF93FF938091C00082FDB4
:102290001CC04091C60080911D0390911E030196C1
:1022A0008F73992720911F03309120038217930782
:1022B00071F0E0911D03F0911E03E352FD4F408346
:1022C00090931E0380931D0302C08091C600FF916E
:1022D000EF919F918F914F913F912F910F900FBE52
:1022E0000F901F90189587E792E00E94A110892B0C
:1022F00011F00C94381108951F920F920FB60F929F
:1023000011242F933F938F939F93EF93FF932091EB
:10231000D9023091DA028091DB029091DC02281719
:10232000390731F48091C1008F7D8093C10014C0C2
:10233000E091DB02F091DC02E756FD4F20818091B5
:10234000DB029091DC0201968F7399279093DC0257
:102350008093DB022093C600FF91EF919F918F91B4
:102360003F912F910F900FBE0F901F901895CF9215
:10237000DF92EF92FF92CF93DF93EC016A017B0132
:10238000411581EE580761057105F9F0EC89FD8969
:1023900081E090E008A002C0880F991F0A94E2F73C
:1023A000808360E079E08DE390E0A70196010E94D0
:1023B000FE1321503109410951095695479537952A
:1023C0002795211580E1380798F0EC89FD89108266
:1023D00060E874E88EE190E0A70196010E94FE1388
:1023E000215031094109510956954795379527954F
:1023F000E889F9893083EA89FB89208319A2EE896B
:10240000FF89408181E090E09C010C8C02C0220F8A
:10241000331F0A94E2F7422B4083EE89FF89408103
:102420009C010D8C02C0220F331F0A94E2F7422B4D
:102430004083EE89FF8940819C010E8C02C0220FEF
:10244000331F0A94E2F7422B4083EE89FF892081F3
:102450000F8C02C0880F991F0A94E2F7809582239F
:102460008083DF91CF91FF90EF90DF90CF90089520
:1024700010927A021092790288EE93E0A0E0B0E028
:1024800080937B0290937C02A0937D02B0937E02A6
:102490008DEC91E090937802809377028DED92E03D
:1024A000909384028093830289E992E0909386025C
:1024B0008093850285EC90E0909388028093870258
:1024C00084EC90E090938A028093890280EC90E003
:1024D00090938C0280938B0281EC90E090938E021B
:1024E00080938D0282EC90E09093900280938F0213
:1024F00086EC90E0909392028093910284E0809326
:10250000930283E08093940287E08093950285E0B4
:102510008093960281E0809397020895CF92DF9294
:10252000EF92FF920F931F93CF93DF936C017A0189
:10253000EB01E60EF71E00E010E0CE15DF0561F0BE
:102540006991D601ED91FC910190F081E02DC601D9
:102550000995080F191FF1CFC801DF91CF911F9185
:102560000F91FF90EF90DF90CF9008956115710566
:1025700081F0DB010D900020E9F7AD0141505109D8
:10258000461B570BDC01ED91FC910280F381E02D9D
:10259000099480E090E008950C94B612DC01ED916E
:1025A000FC910190F081E02D0994DB01ED91FC910B
:1025B00011970190F081E02DBC01CD0109940F939A
:1025C0001F93CF93DF93EC016DE00E94CE128C013C
:1025D0006AE0CE010E94CE12800F911FDF91CF9151
:1025E0001F910F9108950F931F93CF93DF93EC01E9
:1025F0000E94B6128C01CE010E94DF12800F911F43
:10260000DF91CF911F910F9108950F931F93CF9357
:10261000DF93EC010E94D5128C01CE010E94DF12E3
:10262000800F911FDF91CF911F910F9108958F928D
:102630009F92AF92BF92CF92DF92EF92FF920F9351
:102640001F93CF93DF93CDB7DEB7A1970FB6F89462
:10265000DEBF0FBECDBF7C01C42EE52FCB01D22E35
:1026600019A221E02D1510F02AE0D22E8E010F5D67
:102670001F4F8D2C912CA12CB12C6C2D7E2FA501E0
:1026800094010E94FE138C2DD29E801911240150BA
:1026900011098A3014F4805D01C0895CF8018083DF
:1026A000211531054105510521F0C22EE32FCA0144
:1026B000E4CFB801C7010E94B612A1960FB6F894F4
:1026C000DEBF0FBECDBFDF91CF911F910F91FF9065
:1026D000EF90DF90CF90BF90AF909F908F90089534
:1026E000CF92DF92EF92FF920F931F93CF93DF93DE
:1026F000EC016A017B012115310579F4E881F9814A
:102700000190F081E02D642FDF91CF911F910F9107
:10271000FF90EF90DF90CF9009942A303105E9F4D3
:1027200077FF1AC06DE20E94CE128C014427552714
:10273000BA014C195D096E097F092AE0CE010E9499
:102740001713800F911FDF91CF911F910F91FF9071
:10275000EF90DF90CF9008952AE0B701A601CE0157
:10276000DF91CF911F910F91FF90EF90DF90CF906D
:102770000C9417130F931F93CF93DF93EC019A01DF
:10278000AB01662757FD6095762F0E9470138C0170
:10279000CE010E94DF12800F911FDF91CF911F9118
:1027A0000F9108950E9449100E94DB03C3E7D1E115
:1027B0000E94C90D2097E1F30E947311F9CF0E9486
:1027C0002014A59F900DB49F900DA49F800D911D86
:1027D0001124089597FB072E16F4009407D077FD77
:1027E00009D00E942F1407FC05D03EF490958195E6
:1027F0009F4F0895709561957F4F0895A1E21A2E1D
:10280000AA1BBB1BFD010DC0AA1FBB1FEE1FFF1F94
:10281000A217B307E407F50720F0A21BB30BE40BE4
:10282000F50B661F771F881F991F1A9469F760952B
:102830007095809590959B01AC01BD01CF010895E5
:10284000A29FB001B39FC001A39F700D811D1124F1
:10285000911DB29F700D811D1124911D0895AA1B19
:10286000BB1B51E107C0AA1FBB1FA617B70710F07B
:10287000A61BB70B881F991F5A95A9F780959095AD
:10288000BC01CD010895EE0FFF1F0590F491E02DDE
:102890000994FB01DC018D91019080190110D9F39D
:0828A000990B0895F894FFCF95
:1028A800010000004402BB0101000122225C5C0817
:1028B800620C660A6E0D7209740000747275650008
:1028C80066616C7365006E756C6C00434C454152D3
:1028D8000058005900646972656374696F6E005529
:1028E8005F4600555F5200555F4C0073686F727405
:1028F8005F4C460073686F72745F52460073686F6E
:1029080072745F46520073686F72745F464C006C55
:102918006F6E675F424C0074797065007265616420
:10292800696E670064617461007374617475730023
:10293800454E445F45585000454E445F524D540043
:10294800454E445F5041544800535441525420531B
:10295800686F7274657374205061746800000000B9
:1029680000680100000000680100000000FB108EF4
:0A29780012A110CE10B310F01000F1
:00000001FF
