:100000000C945F000C9448030C9475030C948700C7
:100010000C9487000C9487000C9487000C94870044
:100020000C9487000C9487000C9487000C94480271
:100030000C9487000C9487000C9487000C94870024
:100040000C94A2030C9487000C9425050C9468056D
:100050000C9487000C9487000C9487000C94870004
:100060000C9487000C948700000000070002010038
:100070000003040600000000000000000102040864
:100080001020408001020408102001020408102002
:10009000040404040404040402020202020203032E
:1000A0000303030300000000250028002B000000CC
:1000B0000000240027002A008A022406AE02112430
:1000C0001FBECFEFD8E0DEBFCDBF11E0A0E0B1E0B2
:1000D000EAE1F0E102C005900D92A23BB107D9F729
:1000E00012E0A2EBB1E001C01D92AE3DB107E1F715
:1000F00010E0CCEBD0E004C02297FE010E949707ED
:10010000C83BD107C9F70E942D070C9400080C9436
:1001100000000895089542960C9489000F931F9350
:10012000CF93DF93EC01862F688379830E9470045C
:100130000E947A0600E010E021E331E040E050E068
:1001400067E271E080E090E00E94A606FE01E00F09
:10015000F11F738362830E5F1F4F0E30110561F72D
:1001600086E090E0998B888BDF91CF911F910F9162
:10017000089542960C9489000F931F93CF93DF93B9
:10018000EC01862F688379830E9470040E947A06AE
:1001900000E010E021E331E040E050E067E271E090
:1001A00080E090E00E94A606FE01E00FF11F73833D
:1001B00062830E5F1F4F0E30110561F786E090E0FD
:1001C000998B888BDF91CF911F910F910895FC013E
:1001D00082E0808384E0818387E0828388E0838378
:1001E0000895CF93DF93EC0161E088810E94D902EA
:1001F00061E089810E94D90261E089E00E94D90210
:1002000061E08A810E94D90261E08B810E94D9025B
:1002100061E08AE00E94D90280EA8093800081E157
:100220008093810080E991E090938700809386001D
:10023000DF91CF910895CF93DF93EC0177FF05C055
:1002400071956195710981E001C080E0613991E0AB
:10025000790714F060E971E0709389006093880079
:10026000672B11F460E009C0882331F060E08881D9
:100270000E94120361E005C061E088810E941203C0
:1002800060E08981DF91CF910C941203CF93DF93CB
:10029000EC0177FF05C071956195710981E001C09E
:1002A00080E0613991E0790714F060E971E07093C2
:1002B0008B0060938A00672B11F460E009C08823EB
:1002C00031F060E08A810E94120361E005C061E0C4
:1002D0008A810E94120360E08B81DF91CF910C94A0
:1002E00012030F931F93CF93DF93EC018A010E94B7
:1002F0001B01B801CE01DF91CF911F910F910C949A
:1003000046010895CF93DF93EC01842F79836883AE
:100310004A835B8361E00E94D90261E08A810E9486
:10032000120360E088810E94D902C4E0D1E06991A3
:1003300084E392E00E94E70481E0C830D807B9F76F
:10034000DF91CF91089588EC91E00E948A008BEDB7
:1003500091E00E948A008EEE91E00E948A0081E086
:1003600092E00E948A0084E192E00C948A0060E0AE
:1003700083E00E94D90260E08DE00C94D90240E84D
:1003800055E260E070E084E392E00E94A30569E03A
:1003900071E084E392E00E941B070E94B70182EBA8
:1003A00091E00E94F10041E150E06CE070E08DE1ED
:1003B00092E00E94820141E150E066E070E089E154
:1003C00092E00E94820141E150E065E070E085E149
:1003D00092E00E94820163E170E08FEE91E00E9462
:1003E0008E0062E170E082E092E00E948E006EE09A
:1003F00070E08CED91E00E948E0060E170E089EC8D
:1004000091E00E948E006FE070E086EB91E00C942A
:10041000BC0082EB91E00E94F1004CE95FEF6AE4DE
:1004200071E082EB91E00E94710168E077E080E08A
:1004300090E00E940F0448EC50E068EC70E082EB22
:1004400091E00E9471016CEB72E080E090E00E940C
:100450000F044AE451E06CE97FEF82EB91E00E94E7
:10046000710168E077E080E090E00E940F0448ECC2
:1004700050E068EC70E082EB91E00E9471016CEB5F
:1004800072E080E090E00E940F04C7CF0E94090252
:100490001F920F920FB60F9211242F933F934F93F9
:1004A0005F936F937F938F939F93AF93BF93EF93DC
:1004B000FF9380912102909122024091230250915A
:1004C00024022091250230912602892B19F08CE21A
:1004D00091E002C088EC90E0841B950B829FB001F4
:1004E000839F700D929F700D112482EB91E00E940A
:1004F0004601FF91EF91BF91AF919F918F917F91B5
:100500006F915F914F913F912F910F900FBE0F9080
:100510001F9018958DE192E00E94810189E192E09F
:100520000E94810185E192E00E94810182E092E0D7
:100530000E948B008FEE91E00E948B008CED91E089
:100540000E948B0089EC91E00E948B0086EB91E089
:100550000E94B90082EB91E00C94E7000C94A30197
:10056000833081F028F4813099F08230A1F0089531
:100570008630A9F08730B9F08430D1F480918000C2
:100580008F7D03C0809180008F77809380000895D5
:1005900084B58F7702C084B58F7D84BD0895809126
:1005A000B0008F7703C08091B0008F7D8093B00042
:1005B0000895CF93DF9390E0FC01E458FF4F24911E
:1005C000FC01E057FF4F8491882349F190E0880FA8
:1005D000991FFC01E255FF4FA591B4918C559F4F97
:1005E000FC01C591D4919FB7611108C0F8948C911A
:1005F000209582238C93888182230AC0623051F433
:10060000F8948C91322F309583238C938881822BA0
:10061000888304C0F8948C91822B8C939FBFDF91C8
:10062000CF9108950F931F93CF93DF931F92CDB770
:10063000DEB7282F30E0F901E859FF4F8491F90126
:10064000E458FF4F1491F901E057FF4F0491002344
:10065000C9F0882321F069830E94B0026981E02FEC
:10066000F0E0EE0FFF1FEC55FF4FA591B4919FB73F
:10067000F8948C91611103C01095812301C0812BE6
:100680008C939FBF0F90DF91CF911F910F91089591
:100690001F920F920FB60F9211242F933F934F93F7
:1006A0005F936F937F938F939F93AF93BF93EF93DA
:1006B000FF938091270290912802892B29F0E091E5
:1006C0002702F09128020995FF91EF91BF91AF9118
:1006D0009F918F917F916F915F914F913F912F915A
:1006E0000F900FBE0F901F9018951F920F920FB68C
:1006F0000F9211242F933F934F935F936F937F93A8
:100700008F939F93AF93BF93EF93FF9380912902B1
:1007100090912A02892B29F0E0912902F0912A0276
:100720000995FF91EF91BF91AF919F918F917F912B
:100730006F915F914F913F912F910F900FBE0F904E
:100740001F9018951F920F920FB60F9211242F939E
:100750003F938F939F93AF93BF9380912C0290917F
:100760002D02A0912E02B0912F0230912B0223E096
:10077000230F2D3720F40196A11DB11D05C026E8D9
:10078000230F0296A11DB11D20932B0280932C02F2
:1007900090932D02A0932E02B0932F0280913002ED
:1007A00090913102A0913202B09133020196A11DC5
:1007B000B11D8093300290933102A0933202B09326
:1007C0003302BF91AF919F918F913F912F910F90E5
:1007D0000FBE0F901F9018953FB7F894809130028C
:1007E00090913102A0913202B091330226B5A89BBC
:1007F00005C02F3F19F00196A11DB11D3FBF66270F
:10080000782F892F9A2F620F711D811D911D42E053
:10081000660F771F881F991F4A95D1F70895CF92C9
:10082000DF92EF92FF92CF93DF936B017C010E94E6
:10083000EC03EB01C114D104E104F10479F00E944E
:10084000EC036C1B7D0B683E7340A0F381E0C81A7B
:10085000D108E108F108C851DC4FECCFDF91CF910E
:10086000FF90EF90DF90CF900895789484B58260E8
:1008700084BD84B5816084BD85B5826085BD85B544
:10088000816085BDEEE6F0E0808181608083E1E8F3
:10089000F0E010828081826080838081816080832B
:1008A000E0E8F0E0808181608083E1EBF0E080812E
:1008B00084608083E0EBF0E0808181608083EAE700
:1008C000F0E0808184608083808182608083808189
:1008D000816080838081806880831092C100089548
:1008E0008E3008F08E5087702091080190E4299F87
:1008F00090011124822B80937C0080917A00806487
:1009000080937A0080917A0086FDFCCF80917800F8
:100910002091790090E0922B0895FC012485358583
:10092000F901E05CFF4F80819181F901EE5BFF4F9F
:1009300020813181821B930B8F7399270895FC01CD
:1009400084859585FC01E05CFF4F40815181FC016D
:10095000EE5BFF4F208131814217530741F0019038
:10096000F081E02DE80FF91F808190E008958FEF6E
:100970009FEF0895FC0184859585FC01E05CFF4FA5
:1009800040815181FC01EE5BFF4F20813181421794
:10099000530779F0A081B181A80FB91F8C912081F4
:1009A00031812F5F3F4F2F7333273183208390E0B6
:1009B00008958FEF9FEF0895FC0181A1882329F00E
:1009C000A489B5898C9186FFFBCF11A20895CF939E
:1009D000DF93FC0126853785D901A05CBF4F8D913F
:1009E0009C91119701968F739927E901CE5BDF4F98
:1009F0004881598184179507D9F30D90BC91A02D9A
:100A0000A20FB31F6C93A685B785A05CBF4F11964C
:100A10009C938E93A689B7892C9181E090E0078CF6
:100A200002C0880F991F0A94E2F7282B2C9381E0CB
:100A300081A30488F589E02D80818064808381E032
:100A400090E0DF91CF91089508951F920F920FB615
:100A50000F9211242F933F934F938F939F93EF9374
:100A6000FF938091C00082FD1CC04091C600809120
:100A7000DA029091DB0201968F7399272091DC02B4
:100A80003091DD028217930771F0E091DA02F09164
:100A9000DB02E656FD4F40839093DB028093DA023F
:100AA00002C08091C600FF91EF919F918F914F916D
:100AB0003F912F910F900FBE0F901F90189584E3D8
:100AC00092E00E948D04892B11F00C942405089566
:100AD0001F920F920FB60F9211242F933F938F9373
:100AE0009F93EF93FF93209196023091970280910C
:100AF0009802909199022817390731F48091C1002A
:100B00008F7D8093C10014C0E0919802F09199020A
:100B1000EA5AFD4F208180919802909199020196A6
:100B20008F73992790939902809398022093C6001F
:100B3000FF91EF919F918F913F912F910F900FBE59
:100B40000F901F901895CF92DF92EF92FF92CF9364
:100B5000DF93EC016A017B01411581EE58076105C5
:100B60007105F9F0EC89FD8981E090E008A002C0F0
:100B7000880F991F0A94E2F7808360E079E08DE3A3
:100B800090E0A70196010E944507215031094109D3
:100B900051095695479537952795211580E13807D6
:100BA00098F0EC89FD89108260E874E88EE190E0AD
:100BB000A70196010E9445072150310941095109B9
:100BC0005695479537952795E889F9893083EA89BD
:100BD000FB89208319A2EE89FF89408181E090E0A2
:100BE0009C010C8C02C0220F331F0A94E2F7422BA7
:100BF0004083EE89FF8940819C010D8C02C0220F49
:100C0000331F0A94E2F7422B4083EE89FF8940812B
:100C10009C010E8C02C0220F331F0A94E2F7422B74
:100C20004083EE89FF8920810F8C02C0880F991FB5
:100C30000A94E2F7809582238083DF91CF91FF9021
:100C4000EF90DF90CF900895109237021092360205
:100C500088EE93E0A0E0B0E08093380290933902F0
:100C6000A0933A02B0933B0286EA91E0909335025A
:100C7000809334028AE992E090934102809340028B
:100C800086E592E0909343028093420285EC90E0E7
:100C9000909345028093440284EC90E09093470245
:100CA0008093460280EC90E0909349028093480242
:100CB00081EC90E090934B0280934A0282EC90E0AA
:100CC00090934D0280934C0286EC90E090934F02FB
:100CD00080934E0284E08093500283E0809351021F
:100CE00087E08093520285E08093530281E08093F5
:100CF00054020895009729F0BC0180E090E00C9424
:100D0000EF070895CF93DF9300D000D0CDB7DEB7C3
:100D10009B01AC01611571058105910569F069833D
:100D20003A834B835C830E94EA0729813A814B8195
:100D30005C810E94670703C060E070E0CB010F9008
:100D40000F900F900F90DF91CF910895CF92DF9287
:100D5000EF92FF926B017C0162177307840795077E
:100D600064F4CA01B9016C197D098E099F090E94BA
:100D700082066C0D7D1D8E1D9F1DFF90EF90DF90F4
:100D8000CF900895CF92DF92EF92FF920F931F932F
:100D9000CF93DF936C017A01EB01E60EF71E00E0C2
:100DA00010E0CE15DF0561F06991D601ED91FC915F
:100DB0000190F081E02DC6010995080F191FF1CFB0
:100DC000C801DF91CF911F910F91FF90EF90DF90BD
:100DD000CF9008956115710581F0DB010D90002021
:100DE000E9F7AD0141505109461B570BDC01ED916C
:100DF000FC910280F381E02D099480E090E0089559
:100E0000DC01ED91FC910190F081E02D09940F93AC
:100E10001F93CF93DF93EC016DE00E9400078C01DC
:100E20006AE0CE010E940007800F911FDF91CF91F1
:100E30001F910F9108950F931F93CF93DF93EC01B0
:100E40000E94EA068C01CE010E940707800F911FC5
:100E5000DF91CF911F910F9108950E9435040E9458
:100E6000BF01CFE5D5E00E9446022097E1F30E9442
:100E70005F05F9CF0E948607A59F900DB49F900D46
:100E8000A49F800D911D11240895A1E21A2EAA1B82
:100E9000BB1BFD010DC0AA1FBB1FEE1FFF1FA2172A
:100EA000B307E407F50720F0A21BB30BE40BF50B27
:100EB000661F771F881F991F1A9469F760957095B0
:100EC000809590959B01AC01BD01CF010895052E41
:100ED00097FB1EF400940E947E0757FD07D00E94E6
:100EE000450707FC03D04EF40C947E0750954095BF
:100EF000309521953F4F4F4F5F4F089590958095C6
:100F0000709561957F4F8F4F9F4F0895A29FB001BD
:100F1000B39FC001A39F700D811D1124911DB29F2D
:100F2000700D811D1124911D0895EE0FFF1F059076
:100F3000F491E02D09948F929F92AF92BF92CF923D
:100F4000DF92EF92FF92CF93DF93EC01688179817A
:100F50008A819B81611571058105910521F464E207
:100F600079ED8BE597E02DE133EF41E050E00E9411
:100F7000670749015A019B01AC01A7EAB1E40E944D
:100F80003A076B017C01ACEEB4EFA50194010E941D
:100F9000FB07C60ED71EE81EF91EF7FE06C081E04D
:100FA000C81AD108E10880E8F80AC882D982EA8222
:100FB000FB82C701B6019F77DF91CF91FF90EF9041
:100FC000DF90CF90BF90AF909F908F9008950E9438
:100FD0009B07089580E091E00E949B07089560932D
:100FE0000001709301018093020190930301089521
:100FF000B7FF0C943A070E943A07821B930B08959F
:1010000010E0CCEBD0E004C0FE010E9497072296CE
:0A101000CE3BD107C9F7F894FFCFDB
:10101A00010000004402BB0101434C454152005803
:10102A00005900646972656374696F6E00555F46A2
:10103A0000555F5200555F4C0073686F72745F4CC5
:10104A00460073686F72745F52460073686F7274F9
:10105A005F46520073686F72745F464C006C6F6E25
:10106A00675F424C00747970650072656164696EED
:10107A006700646174610049207265616368205386
:10108A0054415254004920726561636820474F41B8
:10109A004C0073746174757300454E445F45585033
:1010AA0000454E445F524D5400454E445F504154F2
:1010BA00480000000000E704C2068D04BA049F0439
:0210CA00DC0444
:00000001FF
