:100000000C9463000C94E8030C9415040C948B007E
:100010000C948B000C948B000C948B000C948B0034
:100020000C948B000C948B000C948B000C948C0221
:100030000C948B000C948B000C948B000C948B0014
:100040000C9442040C948B000C94C5050C94FD0593
:100050000C948B000C948B000C948B000C948B00F4
:100060000C948B000C948B000000000024002700EF
:100070002A0000000000250028002B0000000000DE
:1000800023002600290004040404040404040202DA
:100090000202020203030303030301020408102007
:1000A0004080010204081020010204081020000012
:1000B0000007000201000003040600000000000029
:1000C0000000DF02B70611241FBECFEFD8E0DEBF6D
:1000D000CDBF11E0A0E0B1E0E8EAF0E102C0059098
:1000E0000D92A231B107D9F711E0A2E1B1E001C050
:1000F0001D92A73DB107E1F710E0C6ECD0E004C0C7
:100100002297FE010E944E08C23CD107C9F70E9407
:100110001B080C9452080C940000FC0182E08083C0
:1001200084E0818387E0828388E083830895CF938E
:10013000DF93EC01888161E00E941103898161E015
:100140000E94110389E061E00E9411038A8161E04D
:100150000E9411038B8161E00E9411038AE061E03B
:100160000E94110380EA8093800081E180938100E6
:1001700080E991E09093870080938600DF91CF9192
:100180000895CF93DF93EC0177FF05C070956195DB
:100190007F4F81E001C080E091E06139790714F080
:1001A00060E971E0709389006093880061157105C2
:1001B00019F4888160E00BC0882339F0888160E001
:1001C0000E945603898161E006C0888161E00E9437
:1001D0005603898160E00E945603DF91CF91089514
:1001E000CF93DF93EC0177FF05C0709561957F4F4A
:1001F00081E001C080E091E06139790714F060E9A5
:1002000071E070938B0060938A006115710519F499
:100210008A8160E00BC0882339F08A8160E00E9407
:1002200056038B8161E006C08A8161E00E9456031B
:100230008B8160E00E945603DF91CF9108950F9368
:100240001F93CF93DF93EC018A010E94C100CE017E
:10025000B8010E94F000DF91CF911F910F91089596
:10026000EF92FF920F931F93CF93DF938C01E62EB3
:10027000E7017E01F72EE701F7FE03C0D095C19597
:10028000DF4FF801808160E00E945603F801818110
:1002900060E00E9456037E018C2F9F2D21E0813962
:1002A000920714F080E991E0909389008093880090
:1002B000DF91CF911F910F91FF90EF900895EF92F2
:1002C000FF920F931F93CF93DF938C01E62EE701EC
:1002D0007E01F72EE701F7FE03C0D095C195DF4FF1
:1002E000F801828160E00E945603F801838160E09A
:1002F0000E9456037E018C2F9F2D21E081399207A9
:1003000014F080E991E090938B0080938A00DF9154
:10031000CF911F910F91FF90EF9008950F931F932E
:10032000CF93DF93EC018A010E943001CE01B80126
:100330000E945F01DF91CF911F910F9108950F935C
:100340001F93CF93DF93EC010EE110E0CE0164E642
:1003500070E044E650E00E948E0161E070E080E0D1
:1003600090E00E94B004CE0168EC70E048EC50E0F0
:100370000E948E0161E070E080E090E00E94B00495
:10038000CE016FEF70E04FEF50E00E948E01015000
:100390001040E1F6DF91CF911F910F910895809168
:1003A00018019091190101979093190180931801F8
:1003B000809118019091190120911A0130911B012F
:1003C000821B930B9093170180931601089583E08D
:1003D00060E00E9411038DE060E00E94110385EB54
:1003E00091E040E855E260E070E00E943806089530
:1003F000F89410928000E1E8F0E010828AE196E043
:1004000090938900809388008081886080838081B8
:1004100081608083808184608083EFE6F0E080816A
:100420008260808378940895F894EFE6F0E080810C
:10043000108278940895109217011092160110926C
:100440001C0110921D0110921E0110921F0180EBE1
:1004500094E090931B0180931A0180911A0190916E
:100460001B0190931901809318010E94F80181E00B
:100470006FEC71E043E050E00E94B80382E191E04C
:100480000E94970082E191E06CE271E04CE251E061
:100490000E941F010AC08DE00E948E030097D9F7C9
:1004A0008DE00E948E030097D9F380911A019091FC
:1004B0001B01019790931B0180931A0180911A01EF
:1004C00090911B01009739F70E94140281E00E946D
:1004D000D80382E191E00E949F0160911601709122
:1004E000170185EB91E04AE050E00E94000840913E
:1004F0001C0150911D0160911E0170911F0185EB3F
:1005000091E02AE030E00E94ED0768EB7BE080E0BC
:1005100090E00E94B00408951F920F920FB60F92C0
:1005200011242F933F934F935F936F937F938F93F8
:100530009F93AF93BF93EF93FF93609116017091D8
:10054000170120910001309101014BEF5FEF649F93
:10055000C001659F900D749F900D1124845D9E4F86
:10056000829FB001839F700D929F700D112482E1D4
:1005700091E00E94F00080911C0190911D01A091DA
:100580001E01B0911F010196A11DB11D80931C0198
:1005900090931D01A0931E01B0931F01FF91EF9155
:1005A000BF91AF919F918F917F916F915F914F918B
:1005B0003F912F910F900FBE0F901F90189582E1E1
:1005C00091E00E948D000895833071F0843028F40A
:1005D0008130A1F0823021F514C08630B1F087302F
:1005E000D1F08430E9F404C0809180008F7703C09B
:1005F000809180008F7D80938000089584B58F77EF
:1006000002C084B58F7D84BD08958091B0008F773E
:100610008093B00008958091B0008F7D8093B000EA
:100620000895EF92FF92CF93DF9390E0FC01E6569E
:10063000FF4F44918A579F4FFC018491882389F191
:1006400090E0880F991FFC01E859FF4F25913491E4
:10065000D9018E589F4FFC0125913491E22EE7017C
:100660007E01F32EE701662349F49FB7F8948C913D
:10067000409584238C93888184230BC0623059F485
:100680009FB7F8948C91242F209582238C93888196
:10069000842B888305C09FB7F8948C91842B8C930E
:1006A0009FBFDF91CF91FF90EF9008950F931F931D
:1006B000DF93CF930F92CDB7DEB7282F30E0F9014B
:1006C000E255FF4F8491F901E656FF4F14912A57E6
:1006D0003F4FF90104910023D9F0882321F0698369
:1006E0000E94E4026981E02FF0E0EE0FFF1FEE5858
:1006F000FF4F85919491DC019FB7F894662321F414
:100700008C911095812302C08C91812B8C939FBF7B
:100710000F90CF91DF911F910F9108950F931F9329
:10072000282F30E0F901E255FF4F8491F901E65698
:10073000FF4F04912A573F4FF9011491112391F073
:10074000882311F00E94E402E12FF0E0EE0FFF1F7A
:10075000E458FF4F85919491DC018C91802321E036
:1007600030E011F420E030E0C9011F910F910895AD
:100770008230E8F4E82FF0E0EE0FFF1FE05EFE4F5E
:1007800071836083813041F0809169008C7F842B7C
:1007900080936900E89A089580916900440F551F7D
:1007A000440F551F837F842B80936900E99A089535
:1007B000823068F4813011F0E89801C0E998E82FA0
:1007C000F0E0EE0FFF1FE05EFE4F118210820895F1
:1007D0001F920F920FB60F9211242F933F934F93B6
:1007E0005F936F937F938F939F93AF93BF93EF9399
:1007F000FF938091200190912101009729F0E091D1
:100800002001F09121010995FF91EF91BF91AF91E6
:100810009F918F917F916F915F914F913F912F9118
:100820000F900FBE0F901F9018951F920F920FB64A
:100830000F9211242F933F934F935F936F937F9366
:100840008F939F93AF93BF93EF93FF938091220178
:1008500090912301009729F0E0912201F09123016A
:100860000995FF91EF91BF91AF919F918F917F91EA
:100870006F915F914F913F912F910F900FBE0F900D
:100880001F9018951F920F920FB60F9211242F935D
:100890003F938F939F93AF93BF9380912801909143
:1008A0002901A0912A01B0912B0130912C010196D0
:1008B000A11DB11D232F2D5F2D3720F02D5701963F
:1008C000A11DB11D20932C01809328019093290133
:1008D000A0932A01B0932B018091240190912501CE
:1008E000A0912601B09127010196A11DB11D809311
:1008F000240190932501A0932601B0932701BF9175
:10090000AF919F918F913F912F910F900FBE0F90BC
:100910001F9018959FB7F8942091240130912501DC
:10092000409126015091270186B5A89B06C08F3FB4
:1009300021F02F5F3F4F4F4F5F4F9FBF542F432FEB
:10094000322F2227280F311D411D511D82E0220F19
:10095000331F441F551F8A95D1F7B901CA01089565
:10096000EF92FF920F931F93CF93DF937B018C0144
:100970000E948A04EB010FC00E948A046C1B7D0B4D
:1009800083E0683E780738F00894E108F10801092F
:100990001109C851DC4FE114F1040105110561F79B
:1009A000DF91CF911F910F91FF90EF900895789470
:1009B00084B5826084BD84B5816084BD85B5826064
:1009C00085BD85B5816085BDEEE6F0E08081816002
:1009D0008083E1E8F0E01082808182608083808102
:1009E00081608083E0E8F0E0808181608083E1EBDA
:1009F000F0E0808184608083E0EBF0E080818160C2
:100A00008083EAE7F0E08081846080838081826077
:100A10008083808181608083808180688083109260
:100A2000C1000895FC0184859585FC01E05CFF4FC1
:100A3000208131818E5B9F4FFC0180819181281B39
:100A4000390B2F733070C9010895FC018485958599
:100A5000FC01E05CFF4F40815181FC01EE5BFF4FE8
:100A6000208131814217530741F00190F081E02D40
:100A7000E80FF91F208130E002C02FEF3FEFC901DE
:100A80000895FC0184859585FC01E05CFF4F408161
:100A90005181FC01EE5BFF4F2081318142175307EA
:100AA00071F0A081B181A80FB91F2C918081918133
:100AB00001968F7390709183808330E002C02FEF96
:100AC0003FEFC9010895FC0181A1882329F0A48981
:100AD000B5898C9186FFFBCF11A20895FC01268574
:100AE0003785D901A05CBF4F8D919C9101968F7382
:100AF0009070D901AE5BBF4F4D915C9111978417F7
:100B00009507D1F3D901A05CBF4F0D90BC91A02DEA
:100B1000A20FB31F6C93A685B785A05CBF4F11963B
:100B20009C938E93A689B7892C9181E090E0078CE5
:100B300002C0880F991F0A94E2F7282B2C9381E0BA
:100B400081A30488F589E02D80818064808381E021
:100B500090E00895FB01E05CFF4F208131812F5F21
:100B60003F4F2F733070DB01AE5BBF4F4D915C91F7
:100B700011972417350739F0A081B181A60FB71F4F
:100B80008C9331832083089508951F920F920FB69E
:100B90000F9211242F933F934F935F936F937F9303
:100BA0008F939F93AF93BF93EF93FF938091C00078
:100BB00082FD07C08091C6006DE271E00E94AA0527
:100BC00002C08091C600FF91EF91BF91AF919F91BC
:100BD0008F917F916F915F914F913F912F910F90E6
:100BE0000FBE0F901F90189585EB91E00E941205A3
:100BF000009711F00E94C40508951F920F920FB63E
:100C00000F9211242F933F938F939F93EF93FF9312
:100C10002091B1013091B2018091B3019091B40162
:100C20002817390731F48091C1008F7D8093C1006E
:100C300014C0E091B301F091B401EF58FE4F208150
:100C40008091B3019091B40101968F73907090934D
:100C5000B4018093B3012093C600FF91EF919F915F
:100C60008F913F912F910F900FBE0F901F9018956D
:100C7000DF92EF92FF920F931F93CF93DF93EC01DC
:100C80007A018B01DD24D394403081EE580780E057
:100C9000680780E0780749F4DD24EC89FD8910823B
:100CA00060E874E88EE190E00FC0EC89FD8981E096
:100CB00090E008A002C0880F991F0A94E2F7808391
:100CC00060E079E08DE390E0A80197010E942A0896
:100CD00021503040404050405695479537952795D4
:100CE00080E12030380710F0DD20B1F6E889F9897D
:100CF0003083EA89FB89208319A2EE89FF8940812C
:100D000081E090E09C010C8C02C0220F331F0A94FA
:100D1000E2F7422B4083EE89FF8940819C010D8CD4
:100D200002C0220F331F0A94E2F7422B4083EE8960
:100D3000FF8940819C010E8C02C0220F331F0A9450
:100D4000E2F7422B4083EE89FF8920810F8C02C09D
:100D5000880F991F0A94E2F7809582238083DF91A0
:100D6000CF911F910F91FF90EF90DF900895109217
:100D7000B8011092B70188EE93E0A0E0B0E0809354
:100D8000B9019093BA01A093BB01B093BC01E7EB0A
:100D9000F1E086E091E0929382938DE291E0958775
:100DA000848781E791E09787868785EC90E0918B37
:100DB000808B84EC90E0938B828B80EC90E0958B21
:100DC000848B81EC90E0978B868B82EC90E0918F06
:100DD000808F86EC90E0938F828F84E0848F83E015
:100DE000858F87E0868F85E0878F81E080A30895D7
:100DF000CF92DF92EF92FF920F931F93CF93DF93E7
:100E00006C017B018A01C0E0D0E00FC0D7016D9179
:100E10007D01D601ED91FC910190F081E02DC6019C
:100E20000995C80FD91F015010400115110571F720
:100E3000CE01DF91CF911F910F91FF90EF90DF9046
:100E4000CF9008956115710591F0DB010D900020A0
:100E5000E9F7AD0141505040461B570BDC01ED91C5
:100E6000FC910280F381E02D09959C0102C020E0F5
:100E700030E0C9010895DC01ED91FC910190F08111
:100E8000E02D099508950F931F93CF93DF93EC0105
:100E90006DE00E943B078C01CE016AE00E943B0797
:100EA000080F191FC801DF91CF911F910F9108956D
:100EB0008F929F92AF92BF92CF92DF92EF92FF926A
:100EC0000F931F93DF93CF93CDB7DEB7A1970FB6E4
:100ED000F894DEBF0FBECDBF6C01042FE52FCB0110
:100EE000122F19A2223008F41AE021E2E22EF12C8E
:100EF000EC0EFD1E812E9924AA24BB2403C0022FD0
:100F0000E32FCA01602F7E2FA50194010E942A08B9
:100F1000129F802D1124081B0894E108F1080A3063
:100F200014F4005D01C0095CF7010083211531054F
:100F30004105510521F7C601B7010E942207A1967C
:100F40000FB6F894DEBF0FBECDBFCF91DF911F91DA
:100F50000F91FF90EF90DF90CF90BF90AF909F9058
:100F60008F900895CF92DF92EF92FF920F931F938D
:100F7000CF93DF93EC017A018B012115310541F408
:100F8000E881F9810190F081E02D642F09951AC064
:100F90002A303105A9F477FF12C06DE20E943B07A9
:100FA0006C0144275527BA014E195F09600B710B7C
:100FB000CE012AE00E945807C80ED91E04C02AE0BC
:100FC0000E9458076C01C601DF91CF911F910F91CC
:100FD000FF90EF90DF90CF9008950F931F93CF93E2
:100FE000DF93EC010E94B2078C01CE010E944307FF
:100FF000080F191FC801DF91CF911F910F9108951C
:101000000F931F93CF93DF93EC019A01CB01AC01B7
:10101000662757FD6095762FCE010E94B2078C019E
:10102000CE010E944307080F191FC801DF91CF911D
:101030001F910F910895CF93DF930E94D7040E94D0
:10104000E701C4EFD5E00E941B022097E1F30E9464
:10105000F405F9CFA1E21A2EAA1BBB1BFD010DC09E
:10106000AA1FBB1FEE1FFF1FA217B307E407F50758
:1010700020F0A21BB30BE40BF50B661F771F881F34
:10108000991F1A9469F760957095809590959B01CA
:10109000AC01BD01CF010895EE0FFF1F0590F49143
:0810A000E02D0994F894FFCF44
:1010A8000100000000006E05F8061205410525053F
:0210B8006305CE
:00000001FF
