:100000000C9463000C948B000C948B000C948B006C
:100010000C948B000C948B000C948B000C948B0034
:100020000C948B000C948B000C948B000C948B0024
:100030000C948B000C948B000C948B000C948B0014
:100040000C94B9030C948B000C9463050C949405E8
:100050000C948B000C948B000C948B000C948B00F4
:100060000C948B000C948B000000000024002700EF
:100070002A0000000000250028002B0000000000DE
:1000800023002600290004040404040404040202DA
:100090000202020203030303030301020408102007
:1000A0004080010204081020010204081020000012
:1000B0000007000201000003040600000000000029
:1000C0000000FD02590611241FBECFEFD8E0DEBFAD
:1000D000CDBF11E0A0E0B1E0E8ECFFE002C0059088
:1000E0000D92A835B107D9F712E0A8E5B1E001C03B
:1000F0001D92A831B107E1F710E0C6ECD0E004C0D2
:100100002297FE010E94DE07C23CD107C9F70E9478
:1001100084070C94E2070C9400000E94E00008950C
:10012000282F392FD901862F972FFC0188E00190C5
:100130000D928150E1F708952FEF6F3F720779F12B
:100140002FEF6F3F720709F06CF42FEF6D3F7207CE
:1001500061F12FEF6E3F72072CF52FEF6C3F7207A6
:1001600051F526C06230710589F06330710524F4C1
:100170006130710501F507C06330710551F06430DD
:100180007105C9F409C061E470E017C062E870E06D
:1001900014C063EC70E011C06FEF70E00EC06FEB45
:1001A0007FEF0BC06EE77FEF08C06DE37FEF05C008
:1001B00061E07FEF02C068E270E00E942C010895C8
:1001C000FC0182E0808384E0818386E082838EE08C
:1001D000838387E0848388E085838CE086838FE057
:1001E00087830895CF93DF93EC01888161E00E94BB
:1001F0003303898161E00E94330389E061E00E945A
:1002000033038A8160E00E9433038B8160E00E94A7
:1002100033038C8161E00E9433038D8161E00E9491
:1002200033038AE061E00E9433038E8160E00E9424
:1002300033038F8160E00E94330380E58093800068
:1002400081E18093810080E991E090938700809321
:100250008600DF91CF910895CF93DF93EC0177FF74
:1002600005C0709561957F4F81E001C080E06F3FD0
:10027000710519F014F06FEF70E0709389006093CE
:1002800088006115710519F4888160E00BC088232E
:1002900039F0888160E00E945703898161E006C0DF
:1002A000888161E00E945703898160E00E945703C2
:1002B000DF91CF910895CF93DF93EC0177FF05C0D5
:1002C000709561957F4F81E001C080E06F3F7105BF
:1002D00019F014F06FEF70E070938B0060938A0058
:1002E0006115710519F48C8160E00BC0882339F029
:1002F0008C8160E00E9457038D8161E006C08C8193
:1003000061E00E9457038D8160E00E945703DF91F6
:10031000CF910895FC0183810E948904AC019C0166
:10032000220F331F85E0440F551F8A95E1F7240FF4
:10033000351FC9010895FC0187810E948904AC0121
:100340009C01220F331F65E0440F551F6A95E1F7AA
:10035000240F351FC9010895FC0182810E948F037B
:1003600021E0009709F020E0822F0895FC018681AA
:100370000E948F0321E0009709F020E0822F08956A
:1003800088E591E00E94AC01882339F089EF91E083
:1003900060E071E00E94F106FFCF88E591E00E94E5
:1003A000B601882339F089EF91E069E071E00E949D
:1003B000F106FFCF0895CF93DF93C9EFD1E0CE01CF
:1003C00040E052EC61E070E00E94DB05CE0162E1AA
:1003D00071E00E94F106C8E5D1E0CE010E94F20072
:1003E00080E691E0BE010E949000DF91CF910895D8
:1003F0000F931F93CF93DF93C1E0D0E080E691E0AD
:10040000BE010E949C000E94C00189EF91E06CE255
:1004100071E00E94D10688E591E00E948A01BC014A
:1004200089EF91E04AE050E00E946D0768EE73E0CA
:1004300080E090E00E9427042196C530D105F1F6B6
:10044000CCEFDFEF80E691E0BE010E949C000E94AD
:10045000C00189EF91E06CE271E00E94D10688E56D
:1004600091E00E948A01BC0189EF91E04AE050E0EE
:100470000E946D0768EE73E080E090E00E94270420
:10048000219601F7C0E7DEEF08EC10E088E591E087
:10049000BE010E942C010E94C001CE01B8010E9441
:1004A00093078436910589F489EF91E06CE271E05D
:1004B0000E94D10688E591E00E948A01BC0189EF83
:1004C00091E04AE050E00E946D0762E070E080E059
:1004D00090E00E9427042196C130D105B9F6C0E012
:1004E000D0E008EC10E088E591E0BE010E945B01DD
:1004F0000E94C001CE01B8010E9493078436910585
:1005000089F489EF91E069E371E00E94D10688E502
:1005100091E00E949B01BC0189EF91E04AE050E02C
:100520000E946D0762E070E080E090E00E94270486
:10053000219681E0C139D807B1F6C0E9D1E008ECD5
:1005400010E088E591E0BE010E945B010E94C001BD
:10055000CE01B8010E9493078436910589F489EF92
:1005600091E069E371E00E94D10688E591E00E9484
:100570009B01BC0189EF91E04AE050E00E946D07C9
:1005800062E070E080E090E00E94270421978EEF07
:10059000CF36D807B1F6C0E7DEEF08EC10E088E50B
:1005A00091E0BE010E945B010E94C001CE01B80132
:1005B0000E9493078436910589F489EF91E069E3FD
:1005C00071E00E94D10688E591E00E949B01BC0188
:1005D00089EF91E04AE050E00E946D0762E070E030
:1005E00080E090E00E9427042196C130D105B9F641
:1005F000DF91CF911F910F91089588E591E00E94BE
:10060000E00080E691E00E948D000895833071F053
:10061000843028F48130A1F0823021F514C0863076
:10062000B1F08730D1F08430E9F404C080918000CB
:100630008F7703C0809180008F7D80938000089524
:1006400084B58F7702C084B58F7D84BD0895809175
:10065000B0008F778093B00008958091B0008F7DB7
:100660008093B000089590E0FC01E656FF4F24917E
:10067000FC01EA57FF4FE491EE23C1F0F0E0EE0FEA
:10068000FF1FE859FF4F85919491DC01662341F4E7
:100690009FB7F8948C91209582238C939FBF0895E7
:1006A0009FB7F8948C91822B8C939FBF08950F93E2
:1006B0001F93DF93CF930F92CDB7DEB7282F30E093
:1006C000F901E255FF4F8491F901E656FF4F14916D
:1006D0002A573F4FF90104910023D9F0882321F0D4
:1006E00069830E9406036981E02FF0E0EE0FFF1F8F
:1006F000EE58FF4F85919491DC019FB7F8946623E3
:1007000021F48C911095812302C08C91812B8C93C4
:100710009FBF0F90CF91DF911F910F9108950F937D
:100720001F93282F30E0F901E255FF4F8491F90122
:10073000E656FF4F04912A573F4FF90114911123B8
:1007400091F0882311F00E940603E12FF0E0EE0FF4
:10075000FF1FE458FF4F85919491DC018C91802319
:1007600021E030E011F420E030E0C9011F910F9149
:1007700008951F920F920FB60F9211242F933F935B
:100780008F939F93AF93BF9380916C0190916D0174
:10079000A0916E01B0916F01309170010196A11D81
:1007A000B11D232F2D5F2D3720F02D570196A11D50
:1007B000B11D2093700180936C0190936D01A09303
:1007C0006E01B0936F018091680190916901A091D1
:1007D0006A01B0916B010196A11DB11D8093680162
:1007E00090936901A0936A01B0936B01BF91AF919F
:1007F0009F918F913F912F910F900FBE0F901F905F
:1008000018959FB7F8942091680130916901409143
:100810006A0150916B0186B5A89B06C08F3F21F0FD
:100820002F5F3F4F4F4F5F4F9FBF542F432F322FAC
:100830002227280F311D411D511D82E0220F331F39
:10084000441F551F8A95D1F7B901CA010895EF9247
:10085000FF920F931F93CF93DF937B018C010E9434
:100860000104EB010FC00E9401046C1B7D0B83E0AF
:10087000683E780738F00894E108F1080109110989
:10088000C851DC4FE114F1040105110561F7DF9156
:10089000CF911F910F91FF90EF900895789484B5B8
:1008A000826084BD84B5816084BD85B5826085BD6C
:1008B00085B5816085BDEEE6F0E080818160808352
:1008C000E1E8F0E010828081826080838081816035
:1008D0008083E0E8F0E0808181608083E1EBF0E0FC
:1008E000808184608083E0EBF0E0808181608083A0
:1008F000EAE7F0E080818460808380818260808389
:100900008081816080838081806880831092C100B3
:1009100008958E3008F08E50877090914601929520
:10092000990F990F907C982B90937C0080917A007E
:10093000806480937A0080917A0086FDFCCF2091BC
:10094000780030917900932F80E030E0282B392B0C
:10095000C9010895FC0184859585FC01E05CFF4F89
:10096000208131818E5B9F4FFC0180819181281B0A
:10097000390B2F733070C9010895FC01848595856A
:10098000FC01E05CFF4F40815181FC01EE5BFF4FB9
:10099000208131814217530741F00190F081E02D11
:1009A000E80FF91F208130E002C02FEF3FEFC901AF
:1009B0000895FC0184859585FC01E05CFF4F408132
:1009C0005181FC01EE5BFF4F2081318142175307BB
:1009D00071F0A081B181A80FB91F2C918081918104
:1009E00001968F7390709183808330E002C02FEF67
:1009F0003FEFC9010895DC011E968D919C911F97D0
:100A0000FC01E05CFF4F8E5B9F4F40815181DC0118
:100A10002D913C91119742175307B9F708951F93F1
:100A2000FC01162F26853785D901A05CBF4F8D911B
:100A30009C91019660E470E00E949307D901AE5B3F
:100A4000BF4F4D915C91119784179507D1F3D90150
:100A5000A05CBF4F0D90BC91A02DA20FB31F1C93A3
:100A6000A685B785A05CBF4F11969C938E93A689EF
:100A7000B7892C9181E090E0058C02C0880F991F06
:100A80000A94E2F7282B2C9381E090E01F910895BF
:100A9000FB01E05CFF4F208131812F5F3F4F2F73BF
:100AA0003070DB01AE5BBF4F4D915C911197241705
:100AB000350739F0A081B181A60FB71F8C93318320
:100AC0002083089508951F920F920FB60F9211245C
:100AD0002F933F934F935F936F937F938F939F9346
:100AE000AF93BF93EF93FF938091C60061E771E0EE
:100AF0000E944805FF91EF91BF91AF919F918F9117
:100B00007F916F915F914F913F912F910F900FBE09
:100B10000F901F90189589EF91E00E94AA0400970A
:100B200011F00E94620508951F920F920FB60F9266
:100B300011242F933F935F936F937F938F939F9392
:100B4000AF93BF93EF93FF932091F5013091F6019E
:100B50008091F7019091F8012817390731F48091BD
:100B6000C1008F7D8093C10016C0E091F701F09124
:100B7000F801EB54FE4F20818091F7019091F8012C
:100B8000019660E470E00E9493079093F8018093CF
:100B9000F7012093C600FF91EF91BF91AF919F9114
:100BA0008F917F916F915F913F912F910F900FBE29
:100BB0000F901F901895DF92EF92FF920F931F9363
:100BC000CF93DF93EC017A018B01DD24D394403085
:100BD00081EE580780E0680780E0780749F4DD245B
:100BE000EC89FD89108260E874E88EE190E00FC026
:100BF000EC89FD8981E090E00E8C02C0880F991F7E
:100C00000A94E2F7808360E079E08DE390E0A80148
:100C100097010E94A6072150304040405040569511
:100C200047953795279580E12030380710F0DD2073
:100C3000B1F6E889F9893083EA89FB892083EE8956
:100C4000FF89408181E090E09C010A8C02C0220F64
:100C5000331F0A94E2F7422B4083EE89FF894081DB
:100C60009C010B8C02C0220F331F0A94E2F7422B27
:100C70004083EE89FF8940819C010C8C02C0220FC9
:100C8000331F0A94E2F7422B4083EE89FF892081CB
:100C90000D8C02C0880F991F0A94E2F78095822379
:100CA0008083DF91CF911F910F91FF90EF90DF90A4
:100CB00008951092FC011092FB0188EE93E0A0E0F1
:100CC000B0E08093FD019093FE01A093FF01B093EB
:100CD0000002EBEFF1E08BE491E09293829381E7E5
:100CE00091E09587848785EB91E09787868785ECEF
:100CF00090E0918B808B84EC90E0938B828B80ECE6
:100D000090E0958B848B81EC90E0978B868B86ECC2
:100D100090E0918F808F84E0828F83E0838F87E0E3
:100D2000848F85E0858F81E0868F0895CF92DF9252
:100D3000EF92FF920F931F93CF93DF936C017B0190
:100D40008A01C0E0D0E00FC0D7016D917D01D601CE
:100D5000ED91FC910190F081E02DC6010995C80F3D
:100D6000D91F015010400115110571F7CE01DF9117
:100D7000CF911F910F91FF90EF90DF90CF9008954A
:100D8000DB010D900020E9F7AD0141505040461BBA
:100D9000570BDC01ED91FC910280F381E02D099568
:100DA00008950E94C0060895DC01ED91FC91019028
:100DB000F081E02D099508950F931F93CF93DF9352
:100DC000EC016DE00E94D4068C01CE016AE00E9425
:100DD000D406080F191FC801DF91CF911F910F9101
:100DE00008950F931F93CF93DF93EC010E94C006E9
:100DF0008C01CE010E94DC06080F191FC801DF918B
:100E0000CF911F910F9108958F929F92AF92BF92B1
:100E1000CF92DF92EF92FF920F931F93DF93CF93C6
:100E2000CDB7DEB7A1970FB6F894DEBF0FBECDBF2A
:100E30006C01042FE52FCB01122F19A2223008F4E8
:100E40001AE021E2E22EF12CEC0EFD1E812E9924F7
:100E5000AA24BB2403C0022FE32FCA01602F7E2FD8
:100E6000A50194010E94A607129F802D1124081B42
:100E70000894E108F1080A3014F4005D01C0095C2F
:100E8000F7010083211531054105510521F7C60100
:100E9000B7010E94C006A1960FB6F894DEBF0FBE40
:100EA000CDBFCF91DF911F910F91FF90EF90DF9019
:100EB000CF90BF90AF909F908F90089521153105EE
:100EC00049F4DC01ED91FC910190F081E02D642F5B
:100ED000099508950E94040708950F931F93CF93D7
:100EE000DF93EC019A01AB0160E070E00E945E07C5
:100EF0008C01CE010E94DC06080F191FC801DF918A
:100F0000CF911F910F910895CF93DF930E944E04CC
:100F10000E94DB01CBE8D5E00E94F8012097E1F3C5
:100F20000E948B05F9CF97FB092E07260AD077FD83
:100F300004D02ED006D000201AF4709561957F4F12
:100F40000895F6F7909581959F4F0895A1E21A2E86
:100F5000AA1BBB1BFD010DC0AA1FBB1FEE1FFF1F5D
:100F6000A217B307E407F50720F0A21BB30BE40BAD
:100F7000F50B661F771F881F991F1A9469F76095F4
:100F80007095809590959B01AC01BD01CF010895AE
:100F9000AA1BBB1B51E107C0AA1FBB1FA617B7079F
:100FA00010F0A61BB70B881F991F5A95A9F78095BB
:100FB0009095BC01CD010895EE0FFF1F0590F491AF
:080FC000E02D0994F894FFCF25
:100FC8004D31206661756C74004D32206661756C18
:100FD80074004475616C20564E4835303139204DC7
:100FE8006F746F7220536869656C64004D312063BB
:100FF800757272656E743A20004D32206375727294
:10100800656E743A200001000000000F059606AADC
:0810180004D904BD04FB04002F
:00000001FF
